###############################################################################
#                                                                             #
# IAR ELF Linker V6.60.2.5449/W32 for ARM               10/Mar/2017  21:16:09 #
# Copyright 2007-2013 IAR Systems AB.                                         #
#                                                                             #
#    Output file  =  C:\Users\Feng Shui\embedded_minds\ce4053\Micrium\Softwar #
#                    e\EvalBoards\TI\LM3S9B92-EVALBOT\IAR\uCOS-III-CE4053_PG\ #
#                    Flash\Exe\uCOS-III-Ex4.out                               #
#    Map file     =  C:\Users\Feng Shui\embedded_minds\ce4053\Micrium\Softwar #
#                    e\EvalBoards\TI\LM3S9B92-EVALBOT\IAR\uCOS-III-CE4053_PG\ #
#                    Flash\List\uCOS-III-Ex4.map                              #
#    Command line =  "C:\Users\Feng Shui\embedded_minds\ce4053\Micrium\Softwa #
#                    re\EvalBoards\TI\LM3S9B92-EVALBOT\IAR\uCOS-III-CE4053_PG #
#                    \Flash\Obj\adc.o" "C:\Users\Feng                         #
#                    Shui\embedded_minds\ce4053\Micrium\Software\EvalBoards\T #
#                    I\LM3S9B92-EVALBOT\IAR\uCOS-III-CE4053_PG\Flash\Obj\app. #
#                    o" "C:\Users\Feng Shui\embedded_minds\ce4053\Micrium\Sof #
#                    tware\EvalBoards\TI\LM3S9B92-EVALBOT\IAR\uCOS-III-CE4053 #
#                    _PG\Flash\Obj\app_vect.o" "C:\Users\Feng                 #
#                    Shui\embedded_minds\ce4053\Micrium\Software\EvalBoards\T #
#                    I\LM3S9B92-EVALBOT\IAR\uCOS-III-CE4053_PG\Flash\Obj\bsp. #
#                    o" "C:\Users\Feng Shui\embedded_minds\ce4053\Micrium\Sof #
#                    tware\EvalBoards\TI\LM3S9B92-EVALBOT\IAR\uCOS-III-CE4053 #
#                    _PG\Flash\Obj\bsp_dac.o" "C:\Users\Feng                  #
#                    Shui\embedded_minds\ce4053\Micrium\Software\EvalBoards\T #
#                    I\LM3S9B92-EVALBOT\IAR\uCOS-III-CE4053_PG\Flash\Obj\bsp_ #
#                    display.o" "C:\Users\Feng Shui\embedded_minds\ce4053\Mic #
#                    rium\Software\EvalBoards\TI\LM3S9B92-EVALBOT\IAR\uCOS-II #
#                    I-CE4053_PG\Flash\Obj\bsp_int.o" "C:\Users\Feng          #
#                    Shui\embedded_minds\ce4053\Micrium\Software\EvalBoards\T #
#                    I\LM3S9B92-EVALBOT\IAR\uCOS-III-CE4053_PG\Flash\Obj\bsp_ #
#                    io.o" "C:\Users\Feng Shui\embedded_minds\ce4053\Micrium\ #
#                    Software\EvalBoards\TI\LM3S9B92-EVALBOT\IAR\uCOS-III-CE4 #
#                    053_PG\Flash\Obj\bsp_motor.o" "C:\Users\Feng             #
#                    Shui\embedded_minds\ce4053\Micrium\Software\EvalBoards\T #
#                    I\LM3S9B92-EVALBOT\IAR\uCOS-III-CE4053_PG\Flash\Obj\bsp_ #
#                    sensors.o" "C:\Users\Feng Shui\embedded_minds\ce4053\Mic #
#                    rium\Software\EvalBoards\TI\LM3S9B92-EVALBOT\IAR\uCOS-II #
#                    I-CE4053_PG\Flash\Obj\can.o" "C:\Users\Feng              #
#                    Shui\embedded_minds\ce4053\Micrium\Software\EvalBoards\T #
#                    I\LM3S9B92-EVALBOT\IAR\uCOS-III-CE4053_PG\Flash\Obj\comp #
#                    .o" "C:\Users\Feng Shui\embedded_minds\ce4053\Micrium\So #
#                    ftware\EvalBoards\TI\LM3S9B92-EVALBOT\IAR\uCOS-III-CE405 #
#                    3_PG\Flash\Obj\cpu_.o" "C:\Users\Feng                    #
#                    Shui\embedded_minds\ce4053\Micrium\Software\EvalBoards\T #
#                    I\LM3S9B92-EVALBOT\IAR\uCOS-III-CE4053_PG\Flash\Obj\cpu_ #
#                    a.o" "C:\Users\Feng Shui\embedded_minds\ce4053\Micrium\S #
#                    oftware\EvalBoards\TI\LM3S9B92-EVALBOT\IAR\uCOS-III-CE40 #
#                    53_PG\Flash\Obj\cpu_bsp.o" "C:\Users\Feng                #
#                    Shui\embedded_minds\ce4053\Micrium\Software\EvalBoards\T #
#                    I\LM3S9B92-EVALBOT\IAR\uCOS-III-CE4053_PG\Flash\Obj\cpu_ #
#                    c.o" "C:\Users\Feng Shui\embedded_minds\ce4053\Micrium\S #
#                    oftware\EvalBoards\TI\LM3S9B92-EVALBOT\IAR\uCOS-III-CE40 #
#                    53_PG\Flash\Obj\cpu_core.o" "C:\Users\Feng               #
#                    Shui\embedded_minds\ce4053\Micrium\Software\EvalBoards\T #
#                    I\LM3S9B92-EVALBOT\IAR\uCOS-III-CE4053_PG\Flash\Obj\epi. #
#                    o" "C:\Users\Feng Shui\embedded_minds\ce4053\Micrium\Sof #
#                    tware\EvalBoards\TI\LM3S9B92-EVALBOT\IAR\uCOS-III-CE4053 #
#                    _PG\Flash\Obj\ethernet.o" "C:\Users\Feng                 #
#                    Shui\embedded_minds\ce4053\Micrium\Software\EvalBoards\T #
#                    I\LM3S9B92-EVALBOT\IAR\uCOS-III-CE4053_PG\Flash\Obj\fatf #
#                    s.o" "C:\Users\Feng Shui\embedded_minds\ce4053\Micrium\S #
#                    oftware\EvalBoards\TI\LM3S9B92-EVALBOT\IAR\uCOS-III-CE40 #
#                    53_PG\Flash\Obj\flash.o" "C:\Users\Feng                  #
#                    Shui\embedded_minds\ce4053\Micrium\Software\EvalBoards\T #
#                    I\LM3S9B92-EVALBOT\IAR\uCOS-III-CE4053_PG\Flash\Obj\gpio #
#                    .o" "C:\Users\Feng Shui\embedded_minds\ce4053\Micrium\So #
#                    ftware\EvalBoards\TI\LM3S9B92-EVALBOT\IAR\uCOS-III-CE405 #
#                    3_PG\Flash\Obj\hibernate.o" "C:\Users\Feng               #
#                    Shui\embedded_minds\ce4053\Micrium\Software\EvalBoards\T #
#                    I\LM3S9B92-EVALBOT\IAR\uCOS-III-CE4053_PG\Flash\Obj\i2c. #
#                    o" "C:\Users\Feng Shui\embedded_minds\ce4053\Micrium\Sof #
#                    tware\EvalBoards\TI\LM3S9B92-EVALBOT\IAR\uCOS-III-CE4053 #
#                    _PG\Flash\Obj\i2s.o" "C:\Users\Feng                      #
#                    Shui\embedded_minds\ce4053\Micrium\Software\EvalBoards\T #
#                    I\LM3S9B92-EVALBOT\IAR\uCOS-III-CE4053_PG\Flash\Obj\inte #
#                    rrupt.o" "C:\Users\Feng Shui\embedded_minds\ce4053\Micri #
#                    um\Software\EvalBoards\TI\LM3S9B92-EVALBOT\IAR\uCOS-III- #
#                    CE4053_PG\Flash\Obj\lib_ascii.o" "C:\Users\Feng          #
#                    Shui\embedded_minds\ce4053\Micrium\Software\EvalBoards\T #
#                    I\LM3S9B92-EVALBOT\IAR\uCOS-III-CE4053_PG\Flash\Obj\lib_ #
#                    math.o" "C:\Users\Feng Shui\embedded_minds\ce4053\Micriu #
#                    m\Software\EvalBoards\TI\LM3S9B92-EVALBOT\IAR\uCOS-III-C #
#                    E4053_PG\Flash\Obj\lib_mem.o" "C:\Users\Feng             #
#                    Shui\embedded_minds\ce4053\Micrium\Software\EvalBoards\T #
#                    I\LM3S9B92-EVALBOT\IAR\uCOS-III-CE4053_PG\Flash\Obj\lib_ #
#                    str.o" "C:\Users\Feng Shui\embedded_minds\ce4053\Micrium #
#                    \Software\EvalBoards\TI\LM3S9B92-EVALBOT\IAR\uCOS-III-CE #
#                    4053_PG\Flash\Obj\microsd.o" "C:\Users\Feng              #
#                    Shui\embedded_minds\ce4053\Micrium\Software\EvalBoards\T #
#                    I\LM3S9B92-EVALBOT\IAR\uCOS-III-CE4053_PG\Flash\Obj\mpu. #
#                    o" "C:\Users\Feng Shui\embedded_minds\ce4053\Micrium\Sof #
#                    tware\EvalBoards\TI\LM3S9B92-EVALBOT\IAR\uCOS-III-CE4053 #
#                    _PG\Flash\Obj\os_app_hooks.o" "C:\Users\Feng             #
#                    Shui\embedded_minds\ce4053\Micrium\Software\EvalBoards\T #
#                    I\LM3S9B92-EVALBOT\IAR\uCOS-III-CE4053_PG\Flash\Obj\os_c #
#                    fg_app.o" "C:\Users\Feng Shui\embedded_minds\ce4053\Micr #
#                    ium\Software\EvalBoards\TI\LM3S9B92-EVALBOT\IAR\uCOS-III #
#                    -CE4053_PG\Flash\Obj\os_core.o" "C:\Users\Feng           #
#                    Shui\embedded_minds\ce4053\Micrium\Software\EvalBoards\T #
#                    I\LM3S9B92-EVALBOT\IAR\uCOS-III-CE4053_PG\Flash\Obj\os_c #
#                    pu_a.o" "C:\Users\Feng Shui\embedded_minds\ce4053\Micriu #
#                    m\Software\EvalBoards\TI\LM3S9B92-EVALBOT\IAR\uCOS-III-C #
#                    E4053_PG\Flash\Obj\os_cpu_c.o" "C:\Users\Feng            #
#                    Shui\embedded_minds\ce4053\Micrium\Software\EvalBoards\T #
#                    I\LM3S9B92-EVALBOT\IAR\uCOS-III-CE4053_PG\Flash\Obj\os_d #
#                    bg.o" "C:\Users\Feng Shui\embedded_minds\ce4053\Micrium\ #
#                    Software\EvalBoards\TI\LM3S9B92-EVALBOT\IAR\uCOS-III-CE4 #
#                    053_PG\Flash\Obj\os_flag.o" "C:\Users\Feng               #
#                    Shui\embedded_minds\ce4053\Micrium\Software\EvalBoards\T #
#                    I\LM3S9B92-EVALBOT\IAR\uCOS-III-CE4053_PG\Flash\Obj\os_i #
#                    nt.o" "C:\Users\Feng Shui\embedded_minds\ce4053\Micrium\ #
#                    Software\EvalBoards\TI\LM3S9B92-EVALBOT\IAR\uCOS-III-CE4 #
#                    053_PG\Flash\Obj\os_mem.o" "C:\Users\Feng                #
#                    Shui\embedded_minds\ce4053\Micrium\Software\EvalBoards\T #
#                    I\LM3S9B92-EVALBOT\IAR\uCOS-III-CE4053_PG\Flash\Obj\os_m #
#                    sg.o" "C:\Users\Feng Shui\embedded_minds\ce4053\Micrium\ #
#                    Software\EvalBoards\TI\LM3S9B92-EVALBOT\IAR\uCOS-III-CE4 #
#                    053_PG\Flash\Obj\os_mutex.o" "C:\Users\Feng              #
#                    Shui\embedded_minds\ce4053\Micrium\Software\EvalBoards\T #
#                    I\LM3S9B92-EVALBOT\IAR\uCOS-III-CE4053_PG\Flash\Obj\os_p #
#                    end_multi.o" "C:\Users\Feng                              #
#                    Shui\embedded_minds\ce4053\Micrium\Software\EvalBoards\T #
#                    I\LM3S9B92-EVALBOT\IAR\uCOS-III-CE4053_PG\Flash\Obj\os_p #
#                    rio.o" "C:\Users\Feng Shui\embedded_minds\ce4053\Micrium #
#                    \Software\EvalBoards\TI\LM3S9B92-EVALBOT\IAR\uCOS-III-CE #
#                    4053_PG\Flash\Obj\os_q.o" "C:\Users\Feng                 #
#                    Shui\embedded_minds\ce4053\Micrium\Software\EvalBoards\T #
#                    I\LM3S9B92-EVALBOT\IAR\uCOS-III-CE4053_PG\Flash\Obj\os_R #
#                    ecTask.o" "C:\Users\Feng Shui\embedded_minds\ce4053\Micr #
#                    ium\Software\EvalBoards\TI\LM3S9B92-EVALBOT\IAR\uCOS-III #
#                    -CE4053_PG\Flash\Obj\os_sem.o" "C:\Users\Feng            #
#                    Shui\embedded_minds\ce4053\Micrium\Software\EvalBoards\T #
#                    I\LM3S9B92-EVALBOT\IAR\uCOS-III-CE4053_PG\Flash\Obj\os_s #
#                    tat.o" "C:\Users\Feng Shui\embedded_minds\ce4053\Micrium #
#                    \Software\EvalBoards\TI\LM3S9B92-EVALBOT\IAR\uCOS-III-CE #
#                    4053_PG\Flash\Obj\os_task.o" "C:\Users\Feng              #
#                    Shui\embedded_minds\ce4053\Micrium\Software\EvalBoards\T #
#                    I\LM3S9B92-EVALBOT\IAR\uCOS-III-CE4053_PG\Flash\Obj\os_t #
#                    ick.o" "C:\Users\Feng Shui\embedded_minds\ce4053\Micrium #
#                    \Software\EvalBoards\TI\LM3S9B92-EVALBOT\IAR\uCOS-III-CE #
#                    4053_PG\Flash\Obj\os_time.o" "C:\Users\Feng              #
#                    Shui\embedded_minds\ce4053\Micrium\Software\EvalBoards\T #
#                    I\LM3S9B92-EVALBOT\IAR\uCOS-III-CE4053_PG\Flash\Obj\os_t #
#                    mr.o" "C:\Users\Feng Shui\embedded_minds\ce4053\Micrium\ #
#                    Software\EvalBoards\TI\LM3S9B92-EVALBOT\IAR\uCOS-III-CE4 #
#                    053_PG\Flash\Obj\os_var.o" "C:\Users\Feng                #
#                    Shui\embedded_minds\ce4053\Micrium\Software\EvalBoards\T #
#                    I\LM3S9B92-EVALBOT\IAR\uCOS-III-CE4053_PG\Flash\Obj\pwm. #
#                    o" "C:\Users\Feng Shui\embedded_minds\ce4053\Micrium\Sof #
#                    tware\EvalBoards\TI\LM3S9B92-EVALBOT\IAR\uCOS-III-CE4053 #
#                    _PG\Flash\Obj\qei.o" "C:\Users\Feng                      #
#                    Shui\embedded_minds\ce4053\Micrium\Software\EvalBoards\T #
#                    I\LM3S9B92-EVALBOT\IAR\uCOS-III-CE4053_PG\Flash\Obj\ssi. #
#                    o" "C:\Users\Feng Shui\embedded_minds\ce4053\Micrium\Sof #
#                    tware\EvalBoards\TI\LM3S9B92-EVALBOT\IAR\uCOS-III-CE4053 #
#                    _PG\Flash\Obj\sysctl.o" "C:\Users\Feng                   #
#                    Shui\embedded_minds\ce4053\Micrium\Software\EvalBoards\T #
#                    I\LM3S9B92-EVALBOT\IAR\uCOS-III-CE4053_PG\Flash\Obj\syst #
#                    ick.o" "C:\Users\Feng Shui\embedded_minds\ce4053\Micrium #
#                    \Software\EvalBoards\TI\LM3S9B92-EVALBOT\IAR\uCOS-III-CE #
#                    4053_PG\Flash\Obj\timer.o" "C:\Users\Feng                #
#                    Shui\embedded_minds\ce4053\Micrium\Software\EvalBoards\T #
#                    I\LM3S9B92-EVALBOT\IAR\uCOS-III-CE4053_PG\Flash\Obj\uart #
#                    .o" "C:\Users\Feng Shui\embedded_minds\ce4053\Micrium\So #
#                    ftware\EvalBoards\TI\LM3S9B92-EVALBOT\IAR\uCOS-III-CE405 #
#                    3_PG\Flash\Obj\udma.o" "C:\Users\Feng                    #
#                    Shui\embedded_minds\ce4053\Micrium\Software\EvalBoards\T #
#                    I\LM3S9B92-EVALBOT\IAR\uCOS-III-CE4053_PG\Flash\Obj\usb. #
#                    o" "C:\Users\Feng Shui\embedded_minds\ce4053\Micrium\Sof #
#                    tware\EvalBoards\TI\LM3S9B92-EVALBOT\IAR\uCOS-III-CE4053 #
#                    _PG\Flash\Obj\watchdog.o" --redirect                     #
#                    _Printf=_PrintfFull --redirect _Scanf=_ScanfFull -o      #
#                    "C:\Users\Feng Shui\embedded_minds\ce4053\Micrium\Softwa #
#                    re\EvalBoards\TI\LM3S9B92-EVALBOT\IAR\uCOS-III-CE4053_PG #
#                    \Flash\Exe\uCOS-III-Ex4.out" --map "C:\Users\Feng        #
#                    Shui\embedded_minds\ce4053\Micrium\Software\EvalBoards\T #
#                    I\LM3S9B92-EVALBOT\IAR\uCOS-III-CE4053_PG\Flash\List\uCO #
#                    S-III-Ex4.map" --config "C:\Users\Feng                   #
#                    Shui\embedded_minds\ce4053\Micrium\Software\EvalBoards\T #
#                    I\LM3S9B92-EVALBOT\IAR\uCOS-III-CE4053_PG\..\BSP\LM3S9B9 #
#                    2_Flash.icf" --semihosting --entry __iar_program_start   #
#                    --vfe                                                    #
#                                                                             #
#                                                                             #
###############################################################################

*******************************************************************************
*** RUNTIME MODEL ATTRIBUTES
***

CppFlavor                     = *
__Heap_Handler                = Basic
__SystemLibrary               = DLib
__dlib_dynamic_initialization = normal


*******************************************************************************
*** PLACEMENT SUMMARY
***

"A1":  place at start of [0x00000000-0x0003ffff] { ro section .intvec };
"P1":  place in [from 0x00000000 to 0x0003ffff] { ro };
"P7":  place in [from 0x20000000 to 0x20017fff] { rw, block HEAP, block CSTACK };

  Section             Kind        Address    Size  Object
  -------             ----        -------    ----  ------
"A1":                                       0x11c
  .intvec             const    0x00000000   0x11c  app_vect.o [1]
                             - 0x0000011c   0x11c

"P1":                                      0x4c20
  .text               ro code  0x0000011c   0xa30  os_RecTask.o [1]
  .text               ro code  0x00000b4c   0x168  os_mem.o [1]
  .text               ro code  0x00000cb4   0x51e  os_flag.o [1]
  .text               ro code  0x000011d2    0x2e  copy_init3.o [5]
  .text               ro code  0x00001200   0x5cc  os_task.o [1]
  .text               ro code  0x000017cc   0x160  os_cpu_c.o [1]
  .text               ro code  0x0000192c    0xcc  os_msg.o [1]
  CODE                ro code  0x000019f8    0x2a  cpu_a.o [1]
  .text               ro code  0x00001a22    0x22  zero_init3.o [5]
  .text               ro code  0x00001a44   0x1a0  cpu_core.o [1]
  .text               ro code  0x00001be4   0x940  os_core.o [1]
  .text               ro code  0x00002524   0x3f4  os_tick.o [1]
  .text               ro code  0x00002918   0x124  os_time.o [1]
  .text               ro code  0x00002a3c    0x28  cpu_bsp.o [1]
  .text               ro code  0x00002a64    0x20  srand.o [3]
  .text               ro code  0x00002a84    0xe0  rand.o [3]
  .text               ro code  0x00002b64    0x56  ABImemcpy_unaligned.o [5]
  .rodata             const    0x00002bba     0x2  os_cfg_app.o [1]
  .text               ro code  0x00002bbc    0x88  os_prio.o [1]
  .text               ro code  0x00002c44    0x66  lib_mem.o [1]
  .rodata             const    0x00002caa     0x2  os_cfg_app.o [1]
  .text               ro code  0x00002cac    0x1c  os_mutex.o [1]
  .text               ro code  0x00002cc8    0x1c  os_q.o [1]
  .text               ro code  0x00002ce4   0x2e4  os_tmr.o [1]
  .text               ro code  0x00002fc8   0x210  os_dbg.o [1]
  .text               ro code  0x000031d8    0xe0  os_cfg_app.o [1]
  CODE                ro code  0x000032b8    0x84  os_cpu_a.o [1]
  .text               ro code  0x0000333c    0xa8  bsp.o [1]
  .text               ro code  0x000033e4     0x2  xtls.o [3]
  .rodata             const    0x000033e6     0x2  os_cfg_app.o [1]
  .text               ro code  0x000033e8   0x468  sysctl.o [1]
  .text               ro code  0x00003850   0x256  bsp_int.o [1]
  .rodata             const    0x00003aa6     0x2  os_dbg.o [1]
  .text               ro code  0x00003aa8   0x264  bsp_display.o [1]
  .text               ro code  0x00003d0c    0xa0  bsp_io.o [1]
  .text               ro code  0x00003dac   0x154  bsp_sensors.o [1]
  .text               ro code  0x00003f00   0x120  bsp_motor.o [1]
  .text               ro code  0x00004020   0x13c  cpu_c.o [1]
  .text               ro code  0x0000415c    0xac  i2c.o [1]
  .text               ro code  0x00004208   0x2b0  gpio.o [1]
  .text               ro code  0x000044b8    0x82  pwm.o [1]
  .rodata             const    0x0000453a     0x2  os_dbg.o [1]
  .text               ro code  0x0000453c   0x2b0  app.o [1]
  .rodata             const    0x000047ec    0x5c  sysctl.o [1]
  .rodata             const    0x00004848    0x50  bsp_display.o [1]
  .rodata             const    0x00004898    0x48  gpio.o [1]
  .rodata             const    0x000048e0    0x34  os_dbg.o [1]
  .rodata             const    0x00004914    0x30  os_dbg.o [1]
  .text               ro code  0x00004944    0x30  iarttio.o [6]
  .text               ro code  0x00004974     0x8  XShttio.o [3]
  .rodata             const    0x0000497c    0x2c  os_dbg.o [1]
  .rodata             const    0x000049a8    0x28  os_dbg.o [1]
  .rodata             const    0x000049d0    0x28  os_dbg.o [1]
  .text               ro code  0x000049f8    0x28  data_init.o [5]
  .iar.init_table     const    0x00004a20    0x24  - Linker created -
  .rodata             const    0x00004a44    0x20  os_dbg.o [1]
  .rodata             const    0x00004a64    0x20  os_RecTask.o [1]
  .rodata             const    0x00004a84    0x1c  os_RecTask.o [1]
  .text               ro code  0x00004aa0    0x1a  cmain.o [5]
  .text               ro code  0x00004aba     0x4  low_level_init.o [3]
  .text               ro code  0x00004abe     0x4  exit.o [3]
  .rodata             const    0x00004ac2     0x2  os_dbg.o [1]
  .text               ro code  0x00004ac4     0xa  cexit.o [5]
  .rodata             const    0x00004ace     0x2  os_dbg.o [1]
  .text               ro code  0x00004ad0    0x14  exit.o [6]
  .rodata             const    0x00004ae4    0x18  os_RecTask.o [1]
  .rodata             const    0x00004afc    0x18  os_RecTask.o [1]
  .rodata             const    0x00004b14    0x18  os_tmr.o [1]
  .rodata             const    0x00004b2c    0x14  os_core.o [1]
  .rodata             const    0x00004b40    0x14  os_RecTask.o [1]
  .rodata             const    0x00004b54    0x14  os_tick.o [1]
  .rodata             const    0x00004b68    0x10  app.o [1]
  .rodata             const    0x00004b78    0x10  app.o [1]
  .rodata             const    0x00004b88    0x10  app.o [1]
  .rodata             const    0x00004b98     0xc  os_core.o [1]
  .rodata             const    0x00004ba4     0xc  sysctl.o [1]
  .rodata             const    0x00004bb0     0xc  sysctl.o [1]
  .text               ro code  0x00004bbc     0xc  app_vect.o [1]
  .text               ro code  0x00004bc8     0xc  cstartup_M.o [5]
  .rodata             const    0x00004bd4     0x8  bsp_display.o [1]
  .rodata             const    0x00004bdc     0x8  bsp_display.o [1]
  .rodata             const    0x00004be4     0x8  os_core.o [1]
  .rodata             const    0x00004bec     0x8  os_task.o [1]
  .rodata             const    0x00004bf4     0x4  os_cfg_app.o [1]
  .rodata             const    0x00004bf8     0x4  os_cfg_app.o [1]
  .rodata             const    0x00004bfc     0x4  os_cfg_app.o [1]
  .rodata             const    0x00004c00     0x4  os_cfg_app.o [1]
  .rodata             const    0x00004c04     0x4  os_cfg_app.o [1]
  .rodata             const    0x00004c08     0x4  os_cfg_app.o [1]
  .rodata             const    0x00004c0c     0x4  os_cfg_app.o [1]
  .rodata             const    0x00004c10     0x4  os_cfg_app.o [1]
  .rodata             const    0x00004c14     0x4  os_cfg_app.o [1]
  .rodata             const    0x00004c18     0x4  os_cfg_app.o [1]
  .rodata             const    0x00004c1c     0x4  os_cfg_app.o [1]
  .rodata             const    0x00004c20     0x4  os_cfg_app.o [1]
  .rodata             const    0x00004c24     0x4  os_cfg_app.o [1]
  .rodata             const    0x00004c28     0x4  os_cfg_app.o [1]
  .rodata             const    0x00004c2c     0x4  os_cfg_app.o [1]
  .rodata             const    0x00004c30     0x4  os_cfg_app.o [1]
  .rodata             const    0x00004c34     0x4  os_cfg_app.o [1]
  .rodata             const    0x00004c38     0x4  os_cfg_app.o [1]
  .rodata             const    0x00004c3c     0x4  os_cfg_app.o [1]
  .rodata             const    0x00004c40     0x4  os_cfg_app.o [1]
  .rodata             const    0x00004c44     0x4  os_cfg_app.o [1]
  .rodata             const    0x00004c48     0x4  os_cfg_app.o [1]
  .rodata             const    0x00004c4c     0x4  os_cfg_app.o [1]
  .rodata             const    0x00004c50     0x4  os_dbg.o [1]
  .rodata             const    0x00004c54     0x4  os_dbg.o [1]
  .rodata             const    0x00004c58     0x4  os_dbg.o [1]
  .rodata             const    0x00004c5c     0x2  os_dbg.o [1]
  .rodata             const    0x00004c5e     0x2  os_dbg.o [1]
  .rodata             const    0x00004c60     0x2  os_dbg.o [1]
  .rodata             const    0x00004c62     0x2  os_dbg.o [1]
  .rodata             const    0x00004c64     0x2  os_dbg.o [1]
  .rodata             const    0x00004c66     0x2  os_dbg.o [1]
  .rodata             const    0x00004c68     0x2  os_dbg.o [1]
  .rodata             const    0x00004c6a     0x2  os_dbg.o [1]
  .rodata             const    0x00004c6c     0x2  os_dbg.o [1]
  .rodata             const    0x00004c6e     0x2  os_dbg.o [1]
  .rodata             const    0x00004c70     0x2  os_dbg.o [1]
  .rodata             const    0x00004c72     0x2  os_dbg.o [1]
  .rodata             const    0x00004c74     0x2  os_dbg.o [1]
  .rodata             const    0x00004c76     0x2  os_dbg.o [1]
  .rodata             const    0x00004c78     0x2  os_dbg.o [1]
  .rodata             const    0x00004c7a     0x2  os_dbg.o [1]
  .rodata             const    0x00004c7c     0x2  os_dbg.o [1]
  .rodata             const    0x00004c7e     0x2  os_dbg.o [1]
  .rodata             const    0x00004c80     0x1  os_cfg_app.o [1]
  .rodata             const    0x00004c81     0x1  os_cfg_app.o [1]
  .rodata             const    0x00004c82     0x1  os_dbg.o [1]
  .rodata             const    0x00004c83     0x1  os_dbg.o [1]
  .rodata             const    0x00004c84     0x1  os_dbg.o [1]
  .rodata             const    0x00004c85     0x1  os_dbg.o [1]
  .rodata             const    0x00004c86     0x1  os_dbg.o [1]
  .rodata             const    0x00004c87     0x1  os_dbg.o [1]
  .rodata             const    0x00004c88     0x1  os_dbg.o [1]
  .rodata             const    0x00004c89     0x1  os_dbg.o [1]
  .rodata             const    0x00004c8a     0x1  os_dbg.o [1]
  .rodata             const    0x00004c8b     0x1  os_dbg.o [1]
  .rodata             const    0x00004c8c     0x1  os_dbg.o [1]
  .rodata             const    0x00004c8d     0x1  os_dbg.o [1]
  .rodata             const    0x00004c8e     0x1  os_dbg.o [1]
  .rodata             const    0x00004c8f     0x1  os_dbg.o [1]
  .rodata             const    0x00004c90     0x1  os_dbg.o [1]
  .rodata             const    0x00004c91     0x1  os_dbg.o [1]
  .rodata             const    0x00004c92     0x1  os_dbg.o [1]
  .rodata             const    0x00004c93     0x1  os_dbg.o [1]
  .rodata             const    0x00004c94     0x1  os_dbg.o [1]
  .rodata             const    0x00004c95     0x1  os_dbg.o [1]
  .rodata             const    0x00004c96     0x1  os_dbg.o [1]
  .rodata             const    0x00004c97     0x1  os_dbg.o [1]
  .rodata             const    0x00004c98     0x1  os_dbg.o [1]
  .rodata             const    0x00004c99     0x1  os_dbg.o [1]
  .rodata             const    0x00004c9a     0x1  os_dbg.o [1]
  .rodata             const    0x00004c9b     0x1  os_dbg.o [1]
  .rodata             const    0x00004c9c     0x1  os_dbg.o [1]
  .rodata             const    0x00004c9d     0x1  os_dbg.o [1]
  .rodata             const    0x00004c9e     0x1  os_dbg.o [1]
  .rodata             const    0x00004c9f     0x1  os_dbg.o [1]
  .rodata             const    0x00004ca0     0x1  os_dbg.o [1]
  .rodata             const    0x00004ca1     0x1  os_dbg.o [1]
  .rodata             const    0x00004ca2     0x1  os_dbg.o [1]
  .rodata             const    0x00004ca3     0x1  os_dbg.o [1]
  .rodata             const    0x00004ca4     0x1  os_dbg.o [1]
  .rodata             const    0x00004ca5     0x0  zero_init3.o [5]
  .rodata             const    0x00004ca5     0x0  copy_init3.o [5]
  Initializer bytes   ro data  0x00004ca8    0x94  <for P7 s0>
                             - 0x00004d3c  0x4c20

"P7", part 1 of 3:                           0x94
  P7 s0                        0x20000000    0x94  <Init block>
    __DLIB_PERTHREAD  inited   0x20000000    0x8c  rand.o [3]
    .data             inited   0x2000008c     0x8  XShttio.o [3]
                             - 0x20000094    0x94

"P7", part 2 of 3:                         0x21d4
  .bss                zero     0x20000094   0x640  os_cfg_app.o [1]
  .bss                zero     0x200006d4   0x230  os_RecTask.o [1]
  .bss                zero     0x20000904   0x200  app.o [1]
  .bss                zero     0x20000b04   0x200  app.o [1]
  .bss                zero     0x20000d04   0x200  app.o [1]
  .bss                zero     0x20000f04   0x200  os_cfg_app.o [1]
  .bss                zero     0x20001104   0x200  os_cfg_app.o [1]
  .bss                zero     0x20001304   0x200  os_cfg_app.o [1]
  .bss                zero     0x20001504   0x200  os_cfg_app.o [1]
  .bss                zero     0x20001704   0x200  os_RecTask.o [1]
  .bss                zero     0x20001904   0x118  bsp_int.o [1]
  .bss                zero     0x20001a1c    0xf0  os_var.o [1]
  .bss                zero     0x20001b0c    0xc8  os_RecTask.o [1]
  .bss                zero     0x20001bd4    0x94  app.o [1]
  .bss                zero     0x20001c68    0x94  app.o [1]
  .bss                zero     0x20001cfc    0x94  app.o [1]
  .bss                zero     0x20001d90    0x94  os_RecTask.o [1]
  .bss                zero     0x20001e24    0x94  os_var.o [1]
  .bss                zero     0x20001eb8    0x94  os_var.o [1]
  .bss                zero     0x20001f4c    0x94  os_var.o [1]
  .bss                zero     0x20001fe0    0x68  os_cfg_app.o [1]
  .bss                zero     0x20002048    0x68  os_cfg_app.o [1]
  .bss                zero     0x200020b0    0x38  app.o [1]
  .bss                zero     0x200020e8    0x38  app.o [1]
  .bss                zero     0x20002120    0x28  os_RecTask.o [1]
  .bss                zero     0x20002148    0x20  os_RecTask.o [1]
  .bss                zero     0x20002168    0x20  os_RecTask.o [1]
  .bss                zero     0x20002188    0x20  os_RecTask.o [1]
  .bss                zero     0x200021a8    0x10  cpu_core.o [1]
  .bss                zero     0x200021b8     0xc  os_RecTask.o [1]
  .bss                zero     0x200021c4     0x8  os_var.o [1]
  .bss                zero     0x200021cc     0x4  app.o [1]
  .bss                zero     0x200021d0     0x4  bsp.o [1]
  .bss                zero     0x200021d4     0x4  bsp_display.o [1]
  .bss                zero     0x200021d8     0x4  cpu_core.o [1]
  .bss                zero     0x200021dc     0x4  cpu_core.o [1]
  .bss                zero     0x200021e0     0x4  cpu_core.o [1]
  .bss                zero     0x200021e4     0x4  cpu_core.o [1]
  .bss                zero     0x200021e8     0x4  cpu_core.o [1]
  .bss                zero     0x200021ec     0x4  cpu_core.o [1]
  .bss                zero     0x200021f0     0x4  os_cpu_c.o [1]
  .bss                zero     0x200021f4     0x4  os_prio.o [1]
  .bss                zero     0x200021f8     0x4  os_RecTask.o [1]
  .bss                zero     0x200021fc     0x4  os_RecTask.o [1]
  .bss                zero     0x20002200     0x4  os_RecTask.o [1]
  .bss                zero     0x20002204     0x4  os_var.o [1]
  .bss                zero     0x20002208     0x4  os_var.o [1]
  .bss                zero     0x2000220c     0x4  os_var.o [1]
  .bss                zero     0x20002210     0x4  os_var.o [1]
  .bss                zero     0x20002214     0x4  os_var.o [1]
  .bss                zero     0x20002218     0x4  os_var.o [1]
  .bss                zero     0x2000221c     0x4  os_var.o [1]
  .bss                zero     0x20002220     0x4  os_var.o [1]
  .bss                zero     0x20002224     0x4  os_var.o [1]
  .bss                zero     0x20002228     0x4  os_var.o [1]
  .bss                zero     0x2000222c     0x4  os_var.o [1]
  .bss                zero     0x20002230     0x4  os_var.o [1]
  .bss                zero     0x20002234     0x4  os_var.o [1]
  .bss                zero     0x20002238     0x4  os_var.o [1]
  .bss                zero     0x2000223c     0x4  os_var.o [1]
  .bss                zero     0x20002240     0x4  os_var.o [1]
  .bss                zero     0x20002244     0x4  os_var.o [1]
  .bss                zero     0x20002248     0x4  os_var.o [1]
  .bss                zero     0x2000224c     0x4  os_var.o [1]
  .bss                zero     0x20002250     0x2  cpu_core.o [1]
  .bss                zero     0x20002252     0x2  cpu_core.o [1]
  .bss                zero     0x20002254     0x2  os_var.o [1]
  .bss                zero     0x20002256     0x2  os_var.o [1]
  .bss                zero     0x20002258     0x2  os_var.o [1]
  .bss                zero     0x2000225a     0x2  os_var.o [1]
  .bss                zero     0x2000225c     0x2  os_var.o [1]
  .bss                zero     0x2000225e     0x1  app.o [1]
  .bss                zero     0x2000225f     0x1  app.o [1]
  .bss                zero     0x20002260     0x1  app.o [1]
  .bss                zero     0x20002261     0x1  app.o [1]
  .bss                zero     0x20002262     0x1  app.o [1]
  .bss                zero     0x20002263     0x1  os_var.o [1]
  .bss                zero     0x20002264     0x1  os_var.o [1]
  .bss                zero     0x20002265     0x1  os_var.o [1]
  .bss                zero     0x20002266     0x1  os_var.o [1]
  .bss                zero     0x20002267     0x1  os_var.o [1]
                             - 0x20002268  0x21d4

"P7", part 3 of 3:                          0x400
  CSTACK                       0x20002268   0x400  <Block>
    CSTACK            uninit   0x20002268   0x400  <Block tail>
                             - 0x20002668   0x400


*******************************************************************************
*** INIT TABLE
***

          Address     Size
          -------     ----
Zero (__iar_zero_init3)
    1 destination range, total size 0x21d4:
          0x20000094  0x21d4

Copy (__iar_copy_init3)
    1 source range, total size 0x94:
          0x00004ca8    0x94
    1 destination range, total size 0x94:
          0x20000000    0x94



*******************************************************************************
*** MODULE SUMMARY
***

    Module                 ro code  ro data  rw data
    ------                 -------  -------  -------
C:\Users\Feng Shui\embedded_minds\ce4053\Micrium\Software\EvalBoards\TI\LM3S9B92-EVALBOT\IAR\uCOS-III-CE4053_PG\Flash\Obj: [1]
    app.o                      688       48    2 101
    app_vect.o                  12      284
    bsp.o                      168                 4
    bsp_display.o              612       96        4
    bsp_int.o                  598               280
    bsp_io.o                   160
    bsp_motor.o                288
    bsp_sensors.o              340
    cpu_a.o                     42
    cpu_bsp.o                   40
    cpu_c.o                    316
    cpu_core.o                 416                44
    gpio.o                     688       72
    i2c.o                      172
    lib_mem.o                  102
    os_RecTask.o             2 608      128    1 580
    os_cfg_app.o               224      100    3 856
    os_core.o                2 368       40
    os_cpu_a.o                 132
    os_cpu_c.o                 352                 4
    os_dbg.o                   528      347
    os_flag.o                1 310
    os_mem.o                   360
    os_msg.o                   204
    os_mutex.o                  28
    os_prio.o                  136                 4
    os_q.o                      28
    os_task.o                1 484        8
    os_tick.o                1 012       20
    os_time.o                  292
    os_tmr.o                   740       24
    os_var.o                                     783
    pwm.o                      130
    sysctl.o                 1 128      116
    ------------------------------------------------
    Total:                  17 706    1 283    8 660

command line: [2]
    ------------------------------------------------
    Total:

dl7M_tlf.a: [3]
    XShttio.o                    8        8        8
    exit.o                       4
    low_level_init.o             4
    rand.o                     224      140      140
    srand.o                     32
    xtls.o                       2
    ------------------------------------------------
    Total:                     274      148      148

m7M_tl.a: [4]
    ------------------------------------------------
    Total:

rt7M_tl.a: [5]
    ABImemcpy_unaligned.o       86
    cexit.o                     10
    cmain.o                     26
    copy_init3.o                46
    cstartup_M.o                12
    data_init.o                 40
    zero_init3.o                34
    ------------------------------------------------
    Total:                     254

shb_l.a: [6]
    exit.o                      20
    iarttio.o                   48
    ------------------------------------------------
    Total:                      68

    Linker created                       39    1 024
----------------------------------------------------
    Grand Total:            18 302    1 470    9 832


*******************************************************************************
*** ENTRY LIST
***

Entry                      Address   Size  Type      Object
-----                      -------   ----  ----      ------
?main                   0x00004aa1         Code  Gb  cmain.o [5]
AppRobotMotorDriveSensorEnable
                        0x000046a7   0x20  Code  Lc  app.o [1]
AppTaskOne              0x0000463d   0x34  Code  Lc  app.o [1]
AppTaskOneInfo          0x200020b0   0x38  Data  Lc  app.o [1]
AppTaskOneStk           0x20000b04  0x200  Data  Lc  app.o [1]
AppTaskOneTCB           0x20001c68   0x94  Data  Lc  app.o [1]
AppTaskStart            0x00004589   0xb2  Code  Lc  app.o [1]
AppTaskStartStk         0x20000904  0x200  Data  Lc  app.o [1]
AppTaskStartTCB         0x20001bd4   0x94  Data  Lc  app.o [1]
AppTaskTwo              0x00004671   0x36  Code  Lc  app.o [1]
AppTaskTwoInfo          0x200020e8   0x38  Data  Lc  app.o [1]
AppTaskTwoStk           0x20000d04  0x200  Data  Lc  app.o [1]
AppTaskTwoTCB           0x20001cfc   0x94  Data  Lc  app.o [1]
App_BusFault_ISR        0x00004bc1    0x2  Code  Lc  app_vect.o [1]
App_Fault_ISR           0x00004bbf    0x2  Code  Lc  app_vect.o [1]
App_MemFault_ISR        0x00004bc5    0x2  Code  Lc  app_vect.o [1]
App_NMI_ISR             0x00004bbd    0x2  Code  Lc  app_vect.o [1]
App_Spurious_ISR        0x00004bc7    0x2  Code  Lc  app_vect.o [1]
App_UsageFault_ISR      0x00004bc3    0x2  Code  Lc  app_vect.o [1]
BSP_BumpSensorsInit     0x00003dad   0x18  Code  Gb  bsp_sensors.o [1]
BSP_CPUClkFreq          0x000033a1   0x12  Code  Gb  bsp.o [1]
BSP_CPU_ClkFreq_MHz     0x200021d0    0x4  Data  Gb  bsp.o [1]
BSP_DisplayClear        0x00003b81   0x4c  Code  Gb  bsp_display.o [1]
BSP_DisplayInit         0x00003c09   0xd8  Code  Gb  bsp_display.o [1]
BSP_DisplayOn           0x00003bcd   0x3c  Code  Gb  bsp_display.o [1]
BSP_DisplayWriteArray   0x00003b03   0x3e  Code  Lc  bsp_display.o [1]
BSP_DisplayWriteByte    0x00003ad1   0x32  Code  Lc  bsp_display.o [1]
BSP_DisplayWriteFinal   0x00003b41   0x40  Code  Lc  bsp_display.o [1]
BSP_DisplayWriteFirst   0x00003aa9   0x28  Code  Lc  bsp_display.o [1]
BSP_Init                0x0000333d   0x64  Code  Gb  bsp.o [1]
BSP_IntDisAll           0x00003851    0x8  Code  Gb  bsp_int.o [1]
BSP_IntEn               0x00003859   0x10  Code  Gb  bsp_int.o [1]
BSP_IntHandler          0x00003a7f   0x20  Code  Lc  bsp_int.o [1]
BSP_IntHandlerADC0      0x00003903    0xa  Code  Gb  bsp_int.o [1]
BSP_IntHandlerADC1      0x0000390d    0xa  Code  Gb  bsp_int.o [1]
BSP_IntHandlerADC1_0    0x00003a39    0xa  Code  Gb  bsp_int.o [1]
BSP_IntHandlerADC1_1    0x00003a43    0xa  Code  Gb  bsp_int.o [1]
BSP_IntHandlerADC1_2    0x00003a4d    0xa  Code  Gb  bsp_int.o [1]
BSP_IntHandlerADC1_3    0x00003a57    0xa  Code  Gb  bsp_int.o [1]
BSP_IntHandlerADC2      0x00003917    0xa  Code  Gb  bsp_int.o [1]
BSP_IntHandlerADC3      0x00003921    0xa  Code  Gb  bsp_int.o [1]
BSP_IntHandlerCAN0      0x000039f3    0xa  Code  Gb  bsp_int.o [1]
BSP_IntHandlerCAN1      0x000039fd    0xa  Code  Gb  bsp_int.o [1]
BSP_IntHandlerCOMP0     0x00003971    0xa  Code  Gb  bsp_int.o [1]
BSP_IntHandlerCOMP1     0x0000397b    0xa  Code  Gb  bsp_int.o [1]
BSP_IntHandlerCOMP2     0x00003985    0xa  Code  Gb  bsp_int.o [1]
BSP_IntHandlerDummy     0x00003aa5    0x2  Code  Lc  bsp_int.o [1]
BSP_IntHandlerEPI       0x00003a6b    0xa  Code  Gb  bsp_int.o [1]
BSP_IntHandlerETH       0x00003a07    0xa  Code  Gb  bsp_int.o [1]
BSP_IntHandlerFLASH     0x00003999    0xa  Code  Gb  bsp_int.o [1]
BSP_IntHandlerGPIOA     0x000038a9    0xa  Code  Gb  bsp_int.o [1]
BSP_IntHandlerGPIOB     0x000038b3    0xa  Code  Gb  bsp_int.o [1]
BSP_IntHandlerGPIOC     0x000038bd    0xa  Code  Gb  bsp_int.o [1]
BSP_IntHandlerGPIOD     0x000038c7    0xa  Code  Gb  bsp_int.o [1]
BSP_IntHandlerGPIOE     0x000038d1    0xa  Code  Gb  bsp_int.o [1]
BSP_IntHandlerGPIOF     0x000039a3    0xa  Code  Gb  bsp_int.o [1]
BSP_IntHandlerGPIOG     0x000039ad    0xa  Code  Gb  bsp_int.o [1]
BSP_IntHandlerGPIOH     0x000039b7    0xa  Code  Gb  bsp_int.o [1]
BSP_IntHandlerGPIOJ     0x00003a75    0xa  Code  Gb  bsp_int.o [1]
BSP_IntHandlerHIBERNATE
                        0x00003a11    0xa  Code  Gb  bsp_int.o [1]
BSP_IntHandlerI2C0      0x000038f9    0xa  Code  Gb  bsp_int.o [1]
BSP_IntHandlerI2C1      0x000039e9    0xa  Code  Gb  bsp_int.o [1]
BSP_IntHandlerI2S0      0x00003a61    0xa  Code  Gb  bsp_int.o [1]
BSP_IntHandlerSSI0      0x000038ef    0xa  Code  Gb  bsp_int.o [1]
BSP_IntHandlerSSI1      0x000039cb    0xa  Code  Gb  bsp_int.o [1]
BSP_IntHandlerSYSCTL    0x0000398f    0xa  Code  Gb  bsp_int.o [1]
BSP_IntHandlerTIMER0A   0x00003935    0xa  Code  Gb  bsp_int.o [1]
BSP_IntHandlerTIMER0B   0x0000393f    0xa  Code  Gb  bsp_int.o [1]
BSP_IntHandlerTIMER1A   0x00003949    0xa  Code  Gb  bsp_int.o [1]
BSP_IntHandlerTIMER1B   0x00003953    0xa  Code  Gb  bsp_int.o [1]
BSP_IntHandlerTIMER2A   0x0000395d    0xa  Code  Gb  bsp_int.o [1]
BSP_IntHandlerTIMER2B   0x00003967    0xa  Code  Gb  bsp_int.o [1]
BSP_IntHandlerTIMER3A   0x000039d5    0xa  Code  Gb  bsp_int.o [1]
BSP_IntHandlerTIMER3B   0x000039df    0xa  Code  Gb  bsp_int.o [1]
BSP_IntHandlerUART0     0x000038db    0xa  Code  Gb  bsp_int.o [1]
BSP_IntHandlerUART1     0x000038e5    0xa  Code  Gb  bsp_int.o [1]
BSP_IntHandlerUART2     0x000039c1    0xa  Code  Gb  bsp_int.o [1]
BSP_IntHandlerUDMA_ERR  0x00003a2f    0xa  Code  Gb  bsp_int.o [1]
BSP_IntHandlerUDMA_SW   0x00003a25    0xa  Code  Gb  bsp_int.o [1]
BSP_IntHandlerUSB       0x00003a1b    0xa  Code  Gb  bsp_int.o [1]
BSP_IntHandlerWATCHDOG  0x0000392b    0xa  Code  Gb  bsp_int.o [1]
BSP_IntInit             0x00003891   0x18  Code  Gb  bsp_int.o [1]
BSP_IntVectSet          0x00003869   0x28  Code  Gb  bsp_int.o [1]
BSP_IntVectTbl          0x20001904  0x118  Data  Lc  bsp_int.o [1]
BSP_LED_Off             0x00003d6d   0x36  Code  Gb  bsp_io.o [1]
BSP_LED_On              0x00003d37   0x36  Code  Gb  bsp_io.o [1]
BSP_LEDsInit            0x00003d25   0x12  Code  Gb  bsp_io.o [1]
BSP_MotorStop           0x00003fdd   0x30  Code  Gb  bsp_motor.o [1]
BSP_MotorsInit          0x00003f01   0xdc  Code  Gb  bsp_motor.o [1]
BSP_PushButtonsInit     0x00003d0d   0x18  Code  Gb  bsp_io.o [1]
BSP_WheelSensorEnable   0x00003e67    0xe  Code  Gb  bsp_sensors.o [1]
BSP_WheelSensorIntEnable
                        0x00003e75   0x7e  Code  Gb  bsp_sensors.o [1]
BSP_WheelSensorsInit    0x00003dc5   0xa2  Code  Gb  bsp_sensors.o [1]
CPU_CntLeadZeros        0x00001a0f         Code  Gb  cpu_a.o [1]
CPU_Init                0x00001a45   0x10  Code  Gb  cpu_core.o [1]
CPU_IntDis              0x000019f9         Code  Gb  cpu_a.o [1]
CPU_IntDisMeasCtr       0x20002250    0x2  Data  Gb  cpu_core.o [1]
CPU_IntDisMeasInit      0x00001b37   0x74  Code  Lc  cpu_core.o [1]
CPU_IntDisMeasMaxCalc   0x00001bab   0x14  Code  Lc  cpu_core.o [1]
CPU_IntDisMeasMaxCurGet
                        0x00001a9d   0x1c  Code  Gb  cpu_core.o [1]
CPU_IntDisMeasMaxCurReset
                        0x00001a7d   0x20  Code  Gb  cpu_core.o [1]
CPU_IntDisMeasMaxCur_cnts
                        0x200021e8    0x4  Data  Gb  cpu_core.o [1]
CPU_IntDisMeasMax_cnts  0x200021ec    0x4  Data  Gb  cpu_core.o [1]
CPU_IntDisMeasOvrhd_cnts
                        0x200021e4    0x4  Data  Gb  cpu_core.o [1]
CPU_IntDisMeasStart     0x00001ab9   0x28  Code  Gb  cpu_core.o [1]
CPU_IntDisMeasStart_cnts
                        0x200021dc    0x4  Data  Gb  cpu_core.o [1]
CPU_IntDisMeasStop      0x00001ae1   0x40  Code  Gb  cpu_core.o [1]
CPU_IntDisMeasStop_cnts
                        0x200021e0    0x4  Data  Gb  cpu_core.o [1]
CPU_IntDisNestCtr       0x20002252    0x2  Data  Gb  cpu_core.o [1]
CPU_IntEn               0x000019fd         Code  Gb  cpu_a.o [1]
CPU_IntSrcEn            0x00004021  0x12c  Code  Gb  cpu_c.o [1]
CPU_Name                0x200021a8   0x10  Data  Gb  cpu_core.o [1]
CPU_NameClr             0x00001a55   0x22  Code  Gb  cpu_core.o [1]
CPU_NameInit            0x00001b21    0x8  Code  Lc  cpu_core.o [1]
CPU_RevBits             0x00001a15         Code  Gb  cpu_a.o [1]
CPU_SR_Restore          0x00001a09         Code  Gb  cpu_a.o [1]
CPU_SR_Save             0x00001a01         Code  Gb  cpu_a.o [1]
CPU_TS_Init             0x00001b29    0xe  Code  Lc  cpu_core.o [1]
CPU_TS_TmrFreqSet       0x00001a77    0x6  Code  Gb  cpu_core.o [1]
CPU_TS_TmrFreq_Hz       0x200021d8    0x4  Data  Gb  cpu_core.o [1]
CPU_TS_TmrInit          0x00002a3d   0x18  Code  Gb  cpu_bsp.o [1]
CPU_TS_TmrRd            0x00002a55    0x6  Code  Gb  cpu_bsp.o [1]
CPU_WaitForExcept       0x00001a1f         Code  Gb  cpu_a.o [1]
CPU_WaitForInt          0x00001a1b         Code  Gb  cpu_a.o [1]
CSTACK$$Base            0x20002268          --   Gb  - Linker created -
CSTACK$$Limit           0x20002668          --   Gb  - Linker created -
EDFSchedInit            0x00000799   0x1e  Code  Gb  os_RecTask.o [1]
EDFSchedulerPartition   0x20002148   0x20  Data  Gb  os_RecTask.o [1]
EDFSchedulerStorage     0x20001b0c   0xc8  Data  Gb  os_RecTask.o [1]
EDF_Scheduler_Ptr       0x200021fc    0x4  Data  Gb  os_RecTask.o [1]
Earliest_Deadline_Task  0x20002200    0x4  Data  Gb  os_RecTask.o [1]
GPIODirModeSet          0x00004209   0x46  Code  Gb  gpio.o [1]
GPIOIntTypeSet          0x0000424f   0x5a  Code  Gb  gpio.o [1]
GPIOPadConfigSet        0x000042a9  0x10e  Code  Gb  gpio.o [1]
GPIOPinConfigure        0x00004467   0x46  Code  Gb  gpio.o [1]
GPIOPinIntClear         0x000043ef    0x8  Code  Gb  gpio.o [1]
GPIOPinIntDisable       0x000043c9   0x12  Code  Gb  gpio.o [1]
GPIOPinIntEnable        0x000043b7   0x12  Code  Gb  gpio.o [1]
GPIOPinIntStatus        0x000043db   0x14  Code  Gb  gpio.o [1]
GPIOPinTypeGPIOInput    0x00004401   0x22  Code  Gb  gpio.o [1]
GPIOPinTypeGPIOOutput   0x00004423   0x22  Code  Gb  gpio.o [1]
GPIOPinTypeI2C          0x00004445   0x22  Code  Gb  gpio.o [1]
GPIOPinWrite            0x000043f7    0xa  Code  Gb  gpio.o [1]
I2CMasterControl        0x000041e1    0x4  Code  Gb  i2c.o [1]
I2CMasterDataPut        0x00004203    0x6  Code  Gb  i2c.o [1]
I2CMasterEnable         0x0000419b    0xa  Code  Gb  i2c.o [1]
I2CMasterErr            0x000041e5   0x1e  Code  Gb  i2c.o [1]
I2CMasterInitExpClk     0x0000415d   0x3e  Code  Gb  i2c.o [1]
I2CMasterIntStatus      0x000041a5   0x26  Code  Gb  i2c.o [1]
I2CMasterSlaveAddrSet   0x000041d5    0xc  Code  Gb  i2c.o [1]
IntWheelSensor          0x000046c9   0xd2  Code  Gb  app.o [1]
Left_tgt                0x2000225e    0x1  Data  Gb  app.o [1]
Mem_Clr                 0x00002c45    0xc  Code  Gb  lib_mem.o [1]
Mem_Set                 0x00002c51   0x5a  Code  Gb  lib_mem.o [1]
OSCfg_DataSizeRAM       0x00004c4c    0x4  Data  Gb  os_cfg_app.o [1]
OSCfg_ISRStk            0x20001104  0x200  Data  Gb  os_cfg_app.o [1]
OSCfg_ISRStkBasePtr     0x00004c04    0x4  Data  Gb  os_cfg_app.o [1]
OSCfg_ISRStkSize        0x00004c08    0x4  Data  Gb  os_cfg_app.o [1]
OSCfg_ISRStkSizeRAM     0x00004c0c    0x4  Data  Gb  os_cfg_app.o [1]
OSCfg_IdleTaskStk       0x20000f04  0x200  Data  Gb  os_cfg_app.o [1]
OSCfg_IdleTaskStkBasePtr
                        0x00004bf4    0x4  Data  Gb  os_cfg_app.o [1]
OSCfg_IdleTaskStkLimit  0x00004bf8    0x4  Data  Gb  os_cfg_app.o [1]
OSCfg_IdleTaskStkSize   0x00004bfc    0x4  Data  Gb  os_cfg_app.o [1]
OSCfg_IdleTaskStkSizeRAM
                        0x00004c00    0x4  Data  Gb  os_cfg_app.o [1]
OSCfg_Init              0x000031d9   0xe0  Code  Gb  os_cfg_app.o [1]
OSCfg_MsgPool           0x20000094  0x640  Data  Gb  os_cfg_app.o [1]
OSCfg_MsgPoolBasePtr    0x00004c14    0x4  Data  Gb  os_cfg_app.o [1]
OSCfg_MsgPoolSize       0x00002bba    0x2  Data  Gb  os_cfg_app.o [1]
OSCfg_MsgPoolSizeRAM    0x00004c10    0x4  Data  Gb  os_cfg_app.o [1]
OSCfg_StkSizeMin        0x00004c18    0x4  Data  Gb  os_cfg_app.o [1]
OSCfg_TickRate_Hz       0x00004c1c    0x4  Data  Gb  os_cfg_app.o [1]
OSCfg_TickTaskPrio      0x00004c80    0x1  Data  Gb  os_cfg_app.o [1]
OSCfg_TickTaskStk       0x20001304  0x200  Data  Gb  os_cfg_app.o [1]
OSCfg_TickTaskStkBasePtr
                        0x00004c20    0x4  Data  Gb  os_cfg_app.o [1]
OSCfg_TickTaskStkLimit  0x00004c24    0x4  Data  Gb  os_cfg_app.o [1]
OSCfg_TickTaskStkSize   0x00004c28    0x4  Data  Gb  os_cfg_app.o [1]
OSCfg_TickTaskStkSizeRAM
                        0x00004c2c    0x4  Data  Gb  os_cfg_app.o [1]
OSCfg_TickWheel         0x20001fe0   0x68  Data  Gb  os_cfg_app.o [1]
OSCfg_TickWheelSize     0x00002caa    0x2  Data  Gb  os_cfg_app.o [1]
OSCfg_TickWheelSizeRAM  0x00004c30    0x4  Data  Gb  os_cfg_app.o [1]
OSCfg_TmrTaskPrio       0x00004c81    0x1  Data  Gb  os_cfg_app.o [1]
OSCfg_TmrTaskRate_Hz    0x00004c34    0x4  Data  Gb  os_cfg_app.o [1]
OSCfg_TmrTaskStk        0x20001504  0x200  Data  Gb  os_cfg_app.o [1]
OSCfg_TmrTaskStkBasePtr
                        0x00004c38    0x4  Data  Gb  os_cfg_app.o [1]
OSCfg_TmrTaskStkLimit   0x00004c3c    0x4  Data  Gb  os_cfg_app.o [1]
OSCfg_TmrTaskStkSize    0x00004c40    0x4  Data  Gb  os_cfg_app.o [1]
OSCfg_TmrTaskStkSizeRAM
                        0x00004c44    0x4  Data  Gb  os_cfg_app.o [1]
OSCfg_TmrWheel          0x20002048   0x68  Data  Gb  os_cfg_app.o [1]
OSCfg_TmrWheelSize      0x000033e6    0x2  Data  Gb  os_cfg_app.o [1]
OSCfg_TmrWheelSizeRAM   0x00004c48    0x4  Data  Gb  os_cfg_app.o [1]
OSDbg_AppHooksEn        0x00004c83    0x1  Data  Gb  os_dbg.o [1]
OSDbg_ArgChkEn          0x00004c82    0x1  Data  Gb  os_dbg.o [1]
OSDbg_CalledFromISRChkEn
                        0x00004c84    0x1  Data  Gb  os_dbg.o [1]
OSDbg_DataSize          0x00004c58    0x4  Data  Gb  os_dbg.o [1]
OSDbg_DbgEn             0x00003aa6    0x2  Data  Gb  os_dbg.o [1]
OSDbg_EndiannessTest    0x00004c50    0x4  Data  Gb  os_dbg.o [1]
OSDbg_FlagDelEn         0x00004c86    0x1  Data  Gb  os_dbg.o [1]
OSDbg_FlagEn            0x00004c85    0x1  Data  Gb  os_dbg.o [1]
OSDbg_FlagGrp           0x000049a8   0x28  Data  Gb  os_dbg.o [1]
OSDbg_FlagGrpSize       0x0000453a    0x2  Data  Gb  os_dbg.o [1]
OSDbg_FlagModeClrEn     0x00004c87    0x1  Data  Gb  os_dbg.o [1]
OSDbg_FlagPendAbortEn   0x00004c88    0x1  Data  Gb  os_dbg.o [1]
OSDbg_FlagWidth         0x00004ac2    0x2  Data  Gb  os_dbg.o [1]
OSDbg_ISRPostDeferredEn
                        0x00004c89    0x1  Data  Gb  os_dbg.o [1]
OSDbg_Mem               0x00004a44   0x20  Data  Gb  os_dbg.o [1]
OSDbg_MemEn             0x00004c8a    0x1  Data  Gb  os_dbg.o [1]
OSDbg_MemSize           0x00004ace    0x2  Data  Gb  os_dbg.o [1]
OSDbg_MsgEn             0x00004c8b    0x1  Data  Gb  os_dbg.o [1]
OSDbg_MsgPoolSize       0x00004c5e    0x2  Data  Gb  os_dbg.o [1]
OSDbg_MsgQSize          0x00004c60    0x2  Data  Gb  os_dbg.o [1]
OSDbg_MsgSize           0x00004c5c    0x2  Data  Gb  os_dbg.o [1]
OSDbg_Mutex             0x0000497c   0x2c  Data  Gb  os_dbg.o [1]
OSDbg_MutexDelEn        0x00004c8d    0x1  Data  Gb  os_dbg.o [1]
OSDbg_MutexEn           0x00004c8c    0x1  Data  Gb  os_dbg.o [1]
OSDbg_MutexPendAbortEn  0x00004c8e    0x1  Data  Gb  os_dbg.o [1]
OSDbg_MutexSize         0x00004c62    0x2  Data  Gb  os_dbg.o [1]
OSDbg_ObjTypeChkEn      0x00004c8f    0x1  Data  Gb  os_dbg.o [1]
OSDbg_PendDataSize      0x00004c64    0x2  Data  Gb  os_dbg.o [1]
OSDbg_PendListSize      0x00004c66    0x2  Data  Gb  os_dbg.o [1]
OSDbg_PendMultiEn       0x00004c90    0x1  Data  Gb  os_dbg.o [1]
OSDbg_PendObjSize       0x00004c68    0x2  Data  Gb  os_dbg.o [1]
OSDbg_PrioMax           0x00004c6a    0x2  Data  Gb  os_dbg.o [1]
OSDbg_PrioTblSize       0x00004c6c    0x2  Data  Gb  os_dbg.o [1]
OSDbg_PtrSize           0x00004c6e    0x2  Data  Gb  os_dbg.o [1]
OSDbg_Q                 0x00004914   0x30  Data  Gb  os_dbg.o [1]
OSDbg_QDelEn            0x00004c92    0x1  Data  Gb  os_dbg.o [1]
OSDbg_QEn               0x00004c91    0x1  Data  Gb  os_dbg.o [1]
OSDbg_QFlushEn          0x00004c93    0x1  Data  Gb  os_dbg.o [1]
OSDbg_QPendAbortEn      0x00004c94    0x1  Data  Gb  os_dbg.o [1]
OSDbg_QSize             0x00004c70    0x2  Data  Gb  os_dbg.o [1]
OSDbg_RdyList           0x00004c72    0x2  Data  Gb  os_dbg.o [1]
OSDbg_RdyListSize       0x00004c54    0x4  Data  Gb  os_dbg.o [1]
OSDbg_SchedRoundRobinEn
                        0x00004c95    0x1  Data  Gb  os_dbg.o [1]
OSDbg_Sem               0x000049d0   0x28  Data  Gb  os_dbg.o [1]
OSDbg_SemEn             0x00004c96    0x1  Data  Gb  os_dbg.o [1]
OSDbg_StatTaskEn        0x00004c98    0x1  Data  Gb  os_dbg.o [1]
OSDbg_StatTaskStkChkEn  0x00004c99    0x1  Data  Gb  os_dbg.o [1]
OSDbg_StkWidth          0x00004c97    0x1  Data  Gb  os_dbg.o [1]
OSDbg_TCBSize           0x00004c76    0x2  Data  Gb  os_dbg.o [1]
OSDbg_TaskChangePrioEn  0x00004c9a    0x1  Data  Gb  os_dbg.o [1]
OSDbg_TaskDelEn         0x00004c9b    0x1  Data  Gb  os_dbg.o [1]
OSDbg_TaskProfileEn     0x00004c9e    0x1  Data  Gb  os_dbg.o [1]
OSDbg_TaskQEn           0x00004c9c    0x1  Data  Gb  os_dbg.o [1]
OSDbg_TaskQPendAbortEn  0x00004c9d    0x1  Data  Gb  os_dbg.o [1]
OSDbg_TaskRegTblSize    0x00004c74    0x2  Data  Gb  os_dbg.o [1]
OSDbg_TaskSemPendAbortEn
                        0x00004c9f    0x1  Data  Gb  os_dbg.o [1]
OSDbg_TaskSuspendEn     0x00004ca0    0x1  Data  Gb  os_dbg.o [1]
OSDbg_TickSpokeSize     0x00004c78    0x2  Data  Gb  os_dbg.o [1]
OSDbg_TimeDlyHMSMEn     0x00004ca1    0x1  Data  Gb  os_dbg.o [1]
OSDbg_TimeDlyResumeEn   0x00004ca2    0x1  Data  Gb  os_dbg.o [1]
OSDbg_Tmr               0x000048e0   0x34  Data  Gb  os_dbg.o [1]
OSDbg_TmrDelEn          0x00004ca4    0x1  Data  Gb  os_dbg.o [1]
OSDbg_TmrEn             0x00004ca3    0x1  Data  Gb  os_dbg.o [1]
OSDbg_TmrSize           0x00004c7a    0x2  Data  Gb  os_dbg.o [1]
OSDbg_TmrSpokeSize      0x00004c7c    0x2  Data  Gb  os_dbg.o [1]
OSDbg_VersionNbr        0x00004c7e    0x2  Data  Gb  os_dbg.o [1]
OSDeleteEDFNode         0x0000096d   0xf8  Code  Gb  os_RecTask.o [1]
OSEarliestDeadlineNode  0x0000088f    0xc  Code  Gb  os_RecTask.o [1]
OSFlagCreate            0x00000cb5   0x68  Code  Gb  os_flag.o [1]
OSFlagDbgListPtr        0x20002208    0x4  Data  Gb  os_var.o [1]
OSFlagPend              0x00000d1d  0x2b0  Code  Gb  os_flag.o [1]
OSFlagPost              0x00000fcd   0x20  Code  Gb  os_flag.o [1]
OSFlagQty               0x20002254    0x2  Data  Gb  os_var.o [1]
OSIdleTaskCtr           0x20002204    0x4  Data  Gb  os_var.o [1]
OSIdleTaskHook          0x000017cd    0x2  Code  Gb  os_cpu_c.o [1]
OSIdleTaskTCB           0x20001e24   0x94  Data  Gb  os_var.o [1]
OSInit                  0x00001be5   0xde  Code  Gb  os_core.o [1]
OSInitHook              0x000017cf   0x14  Code  Gb  os_cpu_c.o [1]
OSInsertEDFNode         0x0000089b   0xd2  Code  Gb  os_RecTask.o [1]
OSIntEnter              0x00001cc3   0x24  Code  Gb  os_core.o [1]
OSIntExit               0x00001ce7   0xb2  Code  Gb  os_core.o [1]
OSIntNestingCtr         0x20002263    0x1  Data  Gb  os_var.o [1]
OSMemCreate             0x00000b4d   0x8c  Code  Gb  os_mem.o [1]
OSMemDbgListPtr         0x2000220c    0x4  Data  Gb  os_var.o [1]
OSMemGet                0x00000bd9   0x4a  Code  Gb  os_mem.o [1]
OSMemPut                0x00000c23   0x4a  Code  Gb  os_mem.o [1]
OSMemQty                0x20002256    0x2  Data  Gb  os_var.o [1]
OSMsgPool               0x200021c4    0x8  Data  Gb  os_var.o [1]
OSMutexDbgListPtr       0x20002210    0x4  Data  Gb  os_var.o [1]
OSMutexQty              0x20002258    0x2  Data  Gb  os_var.o [1]
OSNewEDFNode            0x000007cb   0x26  Code  Gb  os_RecTask.o [1]
OSPrioCur               0x20002265    0x1  Data  Gb  os_var.o [1]
OSPrioHighRdy           0x20002266    0x1  Data  Gb  os_var.o [1]
OSPrioTbl               0x200021f4    0x4  Data  Gb  os_prio.o [1]
OSQDbgListPtr           0x20002214    0x4  Data  Gb  os_var.o [1]
OSQQty                  0x2000225a    0x2  Data  Gb  os_var.o [1]
OSRdyList               0x20001a1c   0xf0  Data  Gb  os_var.o [1]
OSRecTaskCreate         0x0000024d  0x110  Code  Gb  os_RecTask.o [1]
OSRecTaskDel            0x0000035d  0x104  Code  Gb  os_RecTask.o [1]
OSRecTaskInit           0x000001c1   0x8c  Code  Gb  os_RecTask.o [1]
OSRecTaskListInit       0x0000011d   0x3c  Code  Gb  os_RecTask.o [1]
OSRecTaskMgr            0x00000461   0xc6  Code  Gb  os_RecTask.o [1]
OSRecTaskMgrStk         0x20001704  0x200  Data  Lc  os_RecTask.o [1]
OSRecTaskMgrTCB         0x20001d90   0x94  Data  Lc  os_RecTask.o [1]
OSRecTaskSvcInit        0x00000159   0x68  Code  Gb  os_RecTask.o [1]
OSRunning               0x20002264    0x1  Data  Gb  os_var.o [1]
OSSched                 0x00001d99   0xc6  Code  Gb  os_core.o [1]
OSSchedLock             0x00001e5f   0x68  Code  Gb  os_core.o [1]
OSSchedLockNestingCtr   0x20002267    0x1  Data  Gb  os_var.o [1]
OSSchedLockTimeBegin    0x20002218    0x4  Data  Gb  os_var.o [1]
OSSchedLockTimeMax      0x2000221c    0x4  Data  Gb  os_var.o [1]
OSSchedLockTimeMaxCur   0x20002220    0x4  Data  Gb  os_var.o [1]
OSSchedUnlock           0x00001ec7   0x88  Code  Gb  os_core.o [1]
OSStart                 0x00001f4f   0x64  Code  Gb  os_core.o [1]
OSStartHighRdy          0x000032b9         Code  Gb  os_cpu_a.o [1]
OSTCBCurPtr             0x20002248    0x4  Data  Gb  os_var.o [1]
OSTCBHighRdyPtr         0x2000224c    0x4  Data  Gb  os_var.o [1]
OSTaskCreate            0x00001201  0x10c  Code  Gb  os_task.o [1]
OSTaskCreateHook        0x000017e3    0x2  Code  Gb  os_cpu_c.o [1]
OSTaskCtxSwCtr          0x20002224    0x4  Data  Gb  os_var.o [1]
OSTaskDbgListPtr        0x20002228    0x4  Data  Gb  os_var.o [1]
OSTaskDel               0x0000130d  0x104  Code  Gb  os_task.o [1]
OSTaskDelHook           0x000017e5    0x2  Code  Gb  os_cpu_c.o [1]
OSTaskQty               0x2000225c    0x2  Data  Gb  os_var.o [1]
OSTaskReturnHook        0x000017e7    0x2  Code  Gb  os_cpu_c.o [1]
OSTaskSemPend           0x00001411  0x146  Code  Gb  os_task.o [1]
OSTaskSemPost           0x00001557   0x1c  Code  Gb  os_task.o [1]
OSTaskStkInit           0x000017e9   0x80  Code  Gb  os_cpu_c.o [1]
OSTaskSwHook            0x00001869   0x3e  Code  Gb  os_cpu_c.o [1]
OSTickCtr               0x2000222c    0x4  Data  Gb  os_var.o [1]
OSTickTaskTCB           0x20001eb8   0x94  Data  Gb  os_var.o [1]
OSTickTaskTimeMax       0x20002230    0x4  Data  Gb  os_var.o [1]
OSTimeDly               0x00002919   0xa6  Code  Gb  os_time.o [1]
OSTimeSet               0x000029bf   0x26  Code  Gb  os_time.o [1]
OSTimeTick              0x000029e5   0x36  Code  Gb  os_time.o [1]
OSTimeTickHook          0x000018a7    0x2  Code  Gb  os_cpu_c.o [1]
OSTmrDbgListPtr         0x20002234    0x4  Data  Gb  os_var.o [1]
OSTmrTaskTCB            0x20001f4c   0x94  Data  Gb  os_var.o [1]
OSTmrTaskTimeMax        0x20002238    0x4  Data  Gb  os_var.o [1]
OSTmrTickCtr            0x2000223c    0x4  Data  Gb  os_var.o [1]
OSTmrUpdateCnt          0x20002240    0x4  Data  Gb  os_var.o [1]
OSTmrUpdateCtr          0x20002244    0x4  Data  Gb  os_var.o [1]
OS_CPU_ExceptStkBase    0x200021f0    0x4  Data  Gb  os_cpu_c.o [1]
OS_CPU_PendSVHandler    0x000032d7         Code  Gb  os_cpu_a.o [1]
OS_CPU_SysTickHandler   0x000018a9   0x2c  Code  Gb  os_cpu_c.o [1]
OS_CPU_SysTickInit      0x000018d5   0x2c  Code  Gb  os_cpu_c.o [1]
OS_Dbg_Init             0x00002fc9  0x210  Code  Gb  os_dbg.o [1]
OS_EDFRdyListRemove     0x00000a65   0x74  Code  Gb  os_RecTask.o [1]
OS_FlagBlock            0x00000fed   0x22  Code  Gb  os_flag.o [1]
OS_FlagDbgListAdd       0x00001021   0x28  Code  Gb  os_flag.o [1]
OS_FlagInit             0x0000100f   0x12  Code  Gb  os_flag.o [1]
OS_FlagPost             0x00001065  0x11a  Code  Gb  os_flag.o [1]
OS_FlagTaskRdy          0x0000117f   0x54  Code  Gb  os_flag.o [1]
OS_IdleTask             0x00001fb3   0x2c  Code  Gb  os_core.o [1]
OS_IdleTaskInit         0x00001fdf   0x50  Code  Gb  os_core.o [1]
OS_MemDbgListAdd        0x00000c6d   0x24  Code  Gb  os_mem.o [1]
OS_MemInit              0x00000c91   0x12  Code  Gb  os_mem.o [1]
OS_MsgPoolCreate        0x0000192d   0x3c  Code  Gb  os_msg.o [1]
OS_MsgPoolInit          0x00001969   0x2c  Code  Gb  os_msg.o [1]
OS_MsgQFreeAll          0x00001995   0x44  Code  Gb  os_msg.o [1]
OS_MsgQInit             0x000019d9   0x14  Code  Gb  os_msg.o [1]
OS_MutexInit            0x00002cad   0x12  Code  Gb  os_mutex.o [1]
OS_Pend                 0x0000202f   0x6c  Code  Gb  os_core.o [1]
OS_PendDataInit         0x0000209b   0x34  Code  Gb  os_core.o [1]
OS_PendDbgNameAdd       0x000020cf   0x42  Code  Gb  os_core.o [1]
OS_PendDbgNameRemove    0x00002111   0x1e  Code  Gb  os_core.o [1]
OS_PendListInit         0x0000212f    0xe  Code  Gb  os_core.o [1]
OS_PendListInsertPrio   0x0000213d   0x6e  Code  Gb  os_core.o [1]
OS_PendListRemove       0x000021ab   0x28  Code  Gb  os_core.o [1]
OS_PendListRemove1      0x000021d3   0x48  Code  Gb  os_core.o [1]
OS_Post                 0x0000221b   0xc0  Code  Gb  os_core.o [1]
OS_Post1                0x000022db   0x26  Code  Gb  os_core.o [1]
OS_PrioGetHighest       0x00002bd1   0x20  Code  Gb  os_prio.o [1]
OS_PrioInit             0x00002bbd   0x14  Code  Gb  os_prio.o [1]
OS_PrioInsert           0x00002bf1   0x26  Code  Gb  os_prio.o [1]
OS_PrioRemove           0x00002c17   0x28  Code  Gb  os_prio.o [1]
OS_QInit                0x00002cc9   0x12  Code  Gb  os_q.o [1]
OS_RdyListInit          0x00002301   0x24  Code  Gb  os_core.o [1]
OS_RdyListInsert        0x0000232d   0x28  Code  Gb  os_core.o [1]
OS_RdyListInsertHead    0x00002355   0x3a  Code  Gb  os_core.o [1]
OS_RdyListInsertTail    0x0000238f   0x38  Code  Gb  os_core.o [1]
OS_RdyListRemove        0x000023c7   0x5c  Code  Gb  os_core.o [1]
OS_SchedLockTimeMeasStart
                        0x00002423   0x14  Code  Gb  os_core.o [1]
OS_SchedLockTimeMeasStop
                        0x00002437   0x2e  Code  Gb  os_core.o [1]
OS_TaskBlock            0x000024d1   0x3a  Code  Gb  os_core.o [1]
OS_TaskDbgListAdd       0x00001573   0x2c  Code  Gb  os_task.o [1]
OS_TaskDbgListRemove    0x0000159f   0x4a  Code  Gb  os_task.o [1]
OS_TaskInit             0x000015e9   0x18  Code  Gb  os_task.o [1]
OS_TaskInitTCB          0x00001601   0xba  Code  Gb  os_task.o [1]
OS_TaskRdy              0x0000250b   0x1a  Code  Gb  os_core.o [1]
OS_TaskReturn           0x000016bb   0x14  Code  Gb  os_task.o [1]
OS_TaskSemPost          0x000016cf   0xd4  Code  Gb  os_task.o [1]
OS_TickListInit         0x000025c1   0x2a  Code  Gb  os_tick.o [1]
OS_TickListInsert       0x000025eb  0x11c  Code  Gb  os_tick.o [1]
OS_TickListRemove       0x00002707   0x42  Code  Gb  os_tick.o [1]
OS_TickListUpdate       0x00002749  0x198  Code  Gb  os_tick.o [1]
OS_TickTask             0x00002525   0x28  Code  Gb  os_tick.o [1]
OS_TickTaskInit         0x0000254d   0x74  Code  Gb  os_tick.o [1]
OS_TmrInit              0x00002ce5   0xda  Code  Gb  os_tmr.o [1]
OS_TmrLink              0x00002dbf   0xd0  Code  Gb  os_tmr.o [1]
OS_TmrTask              0x00002edd   0xaa  Code  Gb  os_tmr.o [1]
OS_TmrUnlink            0x00002e8f   0x4c  Code  Gb  os_tmr.o [1]
PWMGenConfigure         0x000044b9   0x28  Code  Gb  pwm.o [1]
PWMGenEnable            0x000044f5    0xa  Code  Gb  pwm.o [1]
PWMGenPeriodSet         0x000044e1   0x14  Code  Gb  pwm.o [1]
PWMOutputState          0x00004525   0x16  Code  Gb  pwm.o [1]
PWMPulseWidthSet        0x000044ff   0x26  Code  Gb  pwm.o [1]
RecSkipListStorage      0x200021b8    0xc  Data  Gb  os_RecTask.o [1]
RecSkiplistPartition    0x20002168   0x20  Data  Gb  os_RecTask.o [1]
RecTaskList             0x200021f8    0x4  Data  Gb  os_RecTask.o [1]
RecursiveNodePartition  0x20002188   0x20  Data  Gb  os_RecTask.o [1]
RecursiveNodeStorage    0x200006d4  0x230  Data  Gb  os_RecTask.o [1]
Region$$Table$$Base     0x00004a20          --   Gb  - Linker created -
Region$$Table$$Limit    0x00004a44          --   Gb  - Linker created -
Right_tgt               0x2000225f    0x1  Data  Gb  app.o [1]
SysCtlClockGet          0x000035db  0x200  Code  Gb  sysctl.o [1]
SysCtlClockSet          0x00003479  0x162  Code  Gb  sysctl.o [1]
SysCtlDelay             0x00003471    0x8  Code  Gb  sysctl.o [1]
SysCtlPWMClockSet       0x000037db   0x10  Code  Gb  sysctl.o [1]
SysCtlPeripheralEnable  0x00003449   0x26  Code  Gb  sysctl.o [1]
SysCtlPeripheralReset   0x000033e9   0x60  Code  Gb  sysctl.o [1]
TaskReleaseFlag         0x20002120   0x28  Data  Gb  os_RecTask.o [1]
_Rand_idx               0x20000008    0x4  Data  Lc  rand.o [3]
_Rand_rv                0x2000000c   0x80  Data  Lc  rand.o [3]
_Randinit               0x20000000    0x1  Data  Gb  rand.o [3]
_Randseed               0x20000004    0x4  Data  Gb  rand.o [3]
__cmain                 0x00004aa1         Code  Gb  cmain.o [5]
__exit                  0x00004ad1   0x14  Code  Gb  exit.o [6]
__iar_close_ttio        0x00004945   0x2e  Code  Gb  iarttio.o [6]
__iar_copy_init3        0x000011d3   0x2e  Code  Gb  copy_init3.o [5]
__iar_data_init3        0x000049f9   0x28  Code  Gb  data_init.o [5]
__iar_dlib_perthread_access
                        0x000033e5    0x2  Code  Gb  xtls.o [3]
__iar_lookup_ttioh      0x00004975    0x8  Code  Gb  XShttio.o [3]
__iar_program_start     0x00004bc9         Code  Gb  cstartup_M.o [5]
__iar_ttio_handles      0x2000008c    0x8  Data  Lc  XShttio.o [3]
__iar_unaligned___aeabi_memcpy4
                        0x00002b65         Code  Gb  ABImemcpy_unaligned.o [5]
__iar_unaligned___aeabi_memcpy8
                        0x00002b65         Code  Gb  ABImemcpy_unaligned.o [5]
__iar_zero_init3        0x00001a23   0x22  Code  Gb  zero_init3.o [5]
__low_level_init        0x00004abb    0x4  Code  Gb  low_level_init.o [3]
__vector_table          0x00000000  0x11c  Data  Gb  app_vect.o [1]
_call_main              0x00004aad         Code  Gb  cmain.o [5]
_exit                   0x00004ac5         Code  Gb  cexit.o [5]
_main                   0x00004ab7         Code  Gb  cmain.o [5]
app_time                0x200021cc    0x4  Data  Gb  app.o [1]
exit                    0x00004abf    0x4  Code  Gb  exit.o [3]
g_pucRITInit            0x00004848   0x50  Data  Lc  bsp_display.o [1]
g_pucRow1               0x00004bd4    0x8  Data  Lc  bsp_display.o [1]
g_pucRow2               0x00004bdc    0x8  Data  Lc  bsp_display.o [1]
g_pulGPIOBaseAddrs      0x00004898   0x48  Data  Lc  gpio.o [1]
g_pulRCGCRegs           0x00004bb0    0xc  Data  Lc  sysctl.o [1]
g_pulSRCRRegs           0x00004ba4    0xc  Data  Lc  sysctl.o [1]
g_pulXtals              0x000047ec   0x5c  Data  Lc  sysctl.o [1]
g_ulDelay               0x200021d4    0x4  Data  Lc  bsp_display.o [1]
getBalance              0x00000871   0x1e  Code  Gb  os_RecTask.o [1]
height                  0x000007bf    0xc  Code  Gb  os_RecTask.o [1]
insertEDFSched          0x00000ad9   0x14  Code  Gb  os_RecTask.o [1]
insert_task             0x00000681   0x10  Code  Gb  os_RecTask.o [1]
leftRotate              0x00000831   0x40  Code  Gb  os_RecTask.o [1]
main                    0x0000453d   0x4c  Code  Gb  app.o [1]
max                     0x000007b7    0x8  Code  Gb  os_RecTask.o [1]
rand                    0x00002a85   0xe0  Code  Gb  rand.o [3]
rand_level              0x00000691   0x30  Code  Gb  os_RecTask.o [1]
rightRotate             0x000007f1   0x40  Code  Gb  os_RecTask.o [1]
skiplist_delete         0x000006c1   0xd8  Code  Gb  os_RecTask.o [1]
skiplist_init           0x00000527   0x72  Code  Gb  os_RecTask.o [1]
skiplist_insert         0x00000599   0xe8  Code  Gb  os_RecTask.o [1]
srand                   0x00002a65   0x20  Code  Gb  srand.o [3]


[1] = C:\Users\Feng Shui\embedded_minds\ce4053\Micrium\Software\EvalBoards\TI\LM3S9B92-EVALBOT\IAR\uCOS-III-CE4053_PG\Flash\Obj
[2] = command line
[3] = dl7M_tlf.a
[4] = m7M_tl.a
[5] = rt7M_tl.a
[6] = shb_l.a

  18 302 bytes of readonly  code memory
   1 470 bytes of readonly  data memory
   9 832 bytes of readwrite data memory

Errors: none
Warnings: none
