###############################################################################
#                                                                             #
# IAR ELF Linker V6.60.2.5449/W32 for ARM               12/Apr/2017  11:55:08 #
# Copyright 2007-2013 IAR Systems AB.                                         #
#                                                                             #
#    Output file  =  C:\Users\Feng Shui\Desktop\CE4053_Code_v2.10\CE4053_Code #
#                    _v2.10\Micrium\Software\EvalBoards\TI\lm3s9b92-evalbot\i #
#                    ar\uCOS-III-CE4053_PG\Flash\Exe\uCOS-III-Ex4.out         #
#    Map file     =  C:\Users\Feng Shui\Desktop\CE4053_Code_v2.10\CE4053_Code #
#                    _v2.10\Micrium\Software\EvalBoards\TI\lm3s9b92-evalbot\i #
#                    ar\uCOS-III-CE4053_PG\Flash\List\uCOS-III-Ex4.map        #
#    Command line =  "C:\Users\Feng Shui\Desktop\CE4053_Code_v2.10\CE4053_Cod #
#                    e_v2.10\Micrium\Software\EvalBoards\TI\lm3s9b92-evalbot\ #
#                    iar\uCOS-III-CE4053_PG\Flash\Obj\adc.o" "C:\Users\Feng   #
#                    Shui\Desktop\CE4053_Code_v2.10\CE4053_Code_v2.10\Micrium #
#                    \Software\EvalBoards\TI\lm3s9b92-evalbot\iar\uCOS-III-CE #
#                    4053_PG\Flash\Obj\app.o" "C:\Users\Feng                  #
#                    Shui\Desktop\CE4053_Code_v2.10\CE4053_Code_v2.10\Micrium #
#                    \Software\EvalBoards\TI\lm3s9b92-evalbot\iar\uCOS-III-CE #
#                    4053_PG\Flash\Obj\app_vect.o" "C:\Users\Feng             #
#                    Shui\Desktop\CE4053_Code_v2.10\CE4053_Code_v2.10\Micrium #
#                    \Software\EvalBoards\TI\lm3s9b92-evalbot\iar\uCOS-III-CE #
#                    4053_PG\Flash\Obj\bsp.o" "C:\Users\Feng                  #
#                    Shui\Desktop\CE4053_Code_v2.10\CE4053_Code_v2.10\Micrium #
#                    \Software\EvalBoards\TI\lm3s9b92-evalbot\iar\uCOS-III-CE #
#                    4053_PG\Flash\Obj\bsp_dac.o" "C:\Users\Feng              #
#                    Shui\Desktop\CE4053_Code_v2.10\CE4053_Code_v2.10\Micrium #
#                    \Software\EvalBoards\TI\lm3s9b92-evalbot\iar\uCOS-III-CE #
#                    4053_PG\Flash\Obj\bsp_display.o" "C:\Users\Feng          #
#                    Shui\Desktop\CE4053_Code_v2.10\CE4053_Code_v2.10\Micrium #
#                    \Software\EvalBoards\TI\lm3s9b92-evalbot\iar\uCOS-III-CE #
#                    4053_PG\Flash\Obj\bsp_int.o" "C:\Users\Feng              #
#                    Shui\Desktop\CE4053_Code_v2.10\CE4053_Code_v2.10\Micrium #
#                    \Software\EvalBoards\TI\lm3s9b92-evalbot\iar\uCOS-III-CE #
#                    4053_PG\Flash\Obj\bsp_io.o" "C:\Users\Feng               #
#                    Shui\Desktop\CE4053_Code_v2.10\CE4053_Code_v2.10\Micrium #
#                    \Software\EvalBoards\TI\lm3s9b92-evalbot\iar\uCOS-III-CE #
#                    4053_PG\Flash\Obj\bsp_motor.o" "C:\Users\Feng            #
#                    Shui\Desktop\CE4053_Code_v2.10\CE4053_Code_v2.10\Micrium #
#                    \Software\EvalBoards\TI\lm3s9b92-evalbot\iar\uCOS-III-CE #
#                    4053_PG\Flash\Obj\bsp_sensors.o" "C:\Users\Feng          #
#                    Shui\Desktop\CE4053_Code_v2.10\CE4053_Code_v2.10\Micrium #
#                    \Software\EvalBoards\TI\lm3s9b92-evalbot\iar\uCOS-III-CE #
#                    4053_PG\Flash\Obj\can.o" "C:\Users\Feng                  #
#                    Shui\Desktop\CE4053_Code_v2.10\CE4053_Code_v2.10\Micrium #
#                    \Software\EvalBoards\TI\lm3s9b92-evalbot\iar\uCOS-III-CE #
#                    4053_PG\Flash\Obj\comp.o" "C:\Users\Feng                 #
#                    Shui\Desktop\CE4053_Code_v2.10\CE4053_Code_v2.10\Micrium #
#                    \Software\EvalBoards\TI\lm3s9b92-evalbot\iar\uCOS-III-CE #
#                    4053_PG\Flash\Obj\cpu_.o" "C:\Users\Feng                 #
#                    Shui\Desktop\CE4053_Code_v2.10\CE4053_Code_v2.10\Micrium #
#                    \Software\EvalBoards\TI\lm3s9b92-evalbot\iar\uCOS-III-CE #
#                    4053_PG\Flash\Obj\cpu_a.o" "C:\Users\Feng                #
#                    Shui\Desktop\CE4053_Code_v2.10\CE4053_Code_v2.10\Micrium #
#                    \Software\EvalBoards\TI\lm3s9b92-evalbot\iar\uCOS-III-CE #
#                    4053_PG\Flash\Obj\cpu_bsp.o" "C:\Users\Feng              #
#                    Shui\Desktop\CE4053_Code_v2.10\CE4053_Code_v2.10\Micrium #
#                    \Software\EvalBoards\TI\lm3s9b92-evalbot\iar\uCOS-III-CE #
#                    4053_PG\Flash\Obj\cpu_c.o" "C:\Users\Feng                #
#                    Shui\Desktop\CE4053_Code_v2.10\CE4053_Code_v2.10\Micrium #
#                    \Software\EvalBoards\TI\lm3s9b92-evalbot\iar\uCOS-III-CE #
#                    4053_PG\Flash\Obj\cpu_core.o" "C:\Users\Feng             #
#                    Shui\Desktop\CE4053_Code_v2.10\CE4053_Code_v2.10\Micrium #
#                    \Software\EvalBoards\TI\lm3s9b92-evalbot\iar\uCOS-III-CE #
#                    4053_PG\Flash\Obj\epi.o" "C:\Users\Feng                  #
#                    Shui\Desktop\CE4053_Code_v2.10\CE4053_Code_v2.10\Micrium #
#                    \Software\EvalBoards\TI\lm3s9b92-evalbot\iar\uCOS-III-CE #
#                    4053_PG\Flash\Obj\ethernet.o" "C:\Users\Feng             #
#                    Shui\Desktop\CE4053_Code_v2.10\CE4053_Code_v2.10\Micrium #
#                    \Software\EvalBoards\TI\lm3s9b92-evalbot\iar\uCOS-III-CE #
#                    4053_PG\Flash\Obj\fatfs.o" "C:\Users\Feng                #
#                    Shui\Desktop\CE4053_Code_v2.10\CE4053_Code_v2.10\Micrium #
#                    \Software\EvalBoards\TI\lm3s9b92-evalbot\iar\uCOS-III-CE #
#                    4053_PG\Flash\Obj\flash.o" "C:\Users\Feng                #
#                    Shui\Desktop\CE4053_Code_v2.10\CE4053_Code_v2.10\Micrium #
#                    \Software\EvalBoards\TI\lm3s9b92-evalbot\iar\uCOS-III-CE #
#                    4053_PG\Flash\Obj\gpio.o" "C:\Users\Feng                 #
#                    Shui\Desktop\CE4053_Code_v2.10\CE4053_Code_v2.10\Micrium #
#                    \Software\EvalBoards\TI\lm3s9b92-evalbot\iar\uCOS-III-CE #
#                    4053_PG\Flash\Obj\hibernate.o" "C:\Users\Feng            #
#                    Shui\Desktop\CE4053_Code_v2.10\CE4053_Code_v2.10\Micrium #
#                    \Software\EvalBoards\TI\lm3s9b92-evalbot\iar\uCOS-III-CE #
#                    4053_PG\Flash\Obj\i2c.o" "C:\Users\Feng                  #
#                    Shui\Desktop\CE4053_Code_v2.10\CE4053_Code_v2.10\Micrium #
#                    \Software\EvalBoards\TI\lm3s9b92-evalbot\iar\uCOS-III-CE #
#                    4053_PG\Flash\Obj\i2s.o" "C:\Users\Feng                  #
#                    Shui\Desktop\CE4053_Code_v2.10\CE4053_Code_v2.10\Micrium #
#                    \Software\EvalBoards\TI\lm3s9b92-evalbot\iar\uCOS-III-CE #
#                    4053_PG\Flash\Obj\interrupt.o" "C:\Users\Feng            #
#                    Shui\Desktop\CE4053_Code_v2.10\CE4053_Code_v2.10\Micrium #
#                    \Software\EvalBoards\TI\lm3s9b92-evalbot\iar\uCOS-III-CE #
#                    4053_PG\Flash\Obj\lib_ascii.o" "C:\Users\Feng            #
#                    Shui\Desktop\CE4053_Code_v2.10\CE4053_Code_v2.10\Micrium #
#                    \Software\EvalBoards\TI\lm3s9b92-evalbot\iar\uCOS-III-CE #
#                    4053_PG\Flash\Obj\lib_math.o" "C:\Users\Feng             #
#                    Shui\Desktop\CE4053_Code_v2.10\CE4053_Code_v2.10\Micrium #
#                    \Software\EvalBoards\TI\lm3s9b92-evalbot\iar\uCOS-III-CE #
#                    4053_PG\Flash\Obj\lib_mem.o" "C:\Users\Feng              #
#                    Shui\Desktop\CE4053_Code_v2.10\CE4053_Code_v2.10\Micrium #
#                    \Software\EvalBoards\TI\lm3s9b92-evalbot\iar\uCOS-III-CE #
#                    4053_PG\Flash\Obj\lib_str.o" "C:\Users\Feng              #
#                    Shui\Desktop\CE4053_Code_v2.10\CE4053_Code_v2.10\Micrium #
#                    \Software\EvalBoards\TI\lm3s9b92-evalbot\iar\uCOS-III-CE #
#                    4053_PG\Flash\Obj\microsd.o" "C:\Users\Feng              #
#                    Shui\Desktop\CE4053_Code_v2.10\CE4053_Code_v2.10\Micrium #
#                    \Software\EvalBoards\TI\lm3s9b92-evalbot\iar\uCOS-III-CE #
#                    4053_PG\Flash\Obj\mpu.o" "C:\Users\Feng                  #
#                    Shui\Desktop\CE4053_Code_v2.10\CE4053_Code_v2.10\Micrium #
#                    \Software\EvalBoards\TI\lm3s9b92-evalbot\iar\uCOS-III-CE #
#                    4053_PG\Flash\Obj\os_app_hooks.o" "C:\Users\Feng         #
#                    Shui\Desktop\CE4053_Code_v2.10\CE4053_Code_v2.10\Micrium #
#                    \Software\EvalBoards\TI\lm3s9b92-evalbot\iar\uCOS-III-CE #
#                    4053_PG\Flash\Obj\os_cfg_app.o" "C:\Users\Feng           #
#                    Shui\Desktop\CE4053_Code_v2.10\CE4053_Code_v2.10\Micrium #
#                    \Software\EvalBoards\TI\lm3s9b92-evalbot\iar\uCOS-III-CE #
#                    4053_PG\Flash\Obj\os_core.o" "C:\Users\Feng              #
#                    Shui\Desktop\CE4053_Code_v2.10\CE4053_Code_v2.10\Micrium #
#                    \Software\EvalBoards\TI\lm3s9b92-evalbot\iar\uCOS-III-CE #
#                    4053_PG\Flash\Obj\os_cpu_a.o" "C:\Users\Feng             #
#                    Shui\Desktop\CE4053_Code_v2.10\CE4053_Code_v2.10\Micrium #
#                    \Software\EvalBoards\TI\lm3s9b92-evalbot\iar\uCOS-III-CE #
#                    4053_PG\Flash\Obj\os_cpu_c.o" "C:\Users\Feng             #
#                    Shui\Desktop\CE4053_Code_v2.10\CE4053_Code_v2.10\Micrium #
#                    \Software\EvalBoards\TI\lm3s9b92-evalbot\iar\uCOS-III-CE #
#                    4053_PG\Flash\Obj\os_dbg.o" "C:\Users\Feng               #
#                    Shui\Desktop\CE4053_Code_v2.10\CE4053_Code_v2.10\Micrium #
#                    \Software\EvalBoards\TI\lm3s9b92-evalbot\iar\uCOS-III-CE #
#                    4053_PG\Flash\Obj\os_flag.o" "C:\Users\Feng              #
#                    Shui\Desktop\CE4053_Code_v2.10\CE4053_Code_v2.10\Micrium #
#                    \Software\EvalBoards\TI\lm3s9b92-evalbot\iar\uCOS-III-CE #
#                    4053_PG\Flash\Obj\os_int.o" "C:\Users\Feng               #
#                    Shui\Desktop\CE4053_Code_v2.10\CE4053_Code_v2.10\Micrium #
#                    \Software\EvalBoards\TI\lm3s9b92-evalbot\iar\uCOS-III-CE #
#                    4053_PG\Flash\Obj\os_mem.o" "C:\Users\Feng               #
#                    Shui\Desktop\CE4053_Code_v2.10\CE4053_Code_v2.10\Micrium #
#                    \Software\EvalBoards\TI\lm3s9b92-evalbot\iar\uCOS-III-CE #
#                    4053_PG\Flash\Obj\os_msg.o" "C:\Users\Feng               #
#                    Shui\Desktop\CE4053_Code_v2.10\CE4053_Code_v2.10\Micrium #
#                    \Software\EvalBoards\TI\lm3s9b92-evalbot\iar\uCOS-III-CE #
#                    4053_PG\Flash\Obj\os_mutex.o" "C:\Users\Feng             #
#                    Shui\Desktop\CE4053_Code_v2.10\CE4053_Code_v2.10\Micrium #
#                    \Software\EvalBoards\TI\lm3s9b92-evalbot\iar\uCOS-III-CE #
#                    4053_PG\Flash\Obj\os_pend_multi.o" "C:\Users\Feng        #
#                    Shui\Desktop\CE4053_Code_v2.10\CE4053_Code_v2.10\Micrium #
#                    \Software\EvalBoards\TI\lm3s9b92-evalbot\iar\uCOS-III-CE #
#                    4053_PG\Flash\Obj\os_prio.o" "C:\Users\Feng              #
#                    Shui\Desktop\CE4053_Code_v2.10\CE4053_Code_v2.10\Micrium #
#                    \Software\EvalBoards\TI\lm3s9b92-evalbot\iar\uCOS-III-CE #
#                    4053_PG\Flash\Obj\os_q.o" "C:\Users\Feng                 #
#                    Shui\Desktop\CE4053_Code_v2.10\CE4053_Code_v2.10\Micrium #
#                    \Software\EvalBoards\TI\lm3s9b92-evalbot\iar\uCOS-III-CE #
#                    4053_PG\Flash\Obj\os_RecTask.o" "C:\Users\Feng           #
#                    Shui\Desktop\CE4053_Code_v2.10\CE4053_Code_v2.10\Micrium #
#                    \Software\EvalBoards\TI\lm3s9b92-evalbot\iar\uCOS-III-CE #
#                    4053_PG\Flash\Obj\os_sem.o" "C:\Users\Feng               #
#                    Shui\Desktop\CE4053_Code_v2.10\CE4053_Code_v2.10\Micrium #
#                    \Software\EvalBoards\TI\lm3s9b92-evalbot\iar\uCOS-III-CE #
#                    4053_PG\Flash\Obj\os_stat.o" "C:\Users\Feng              #
#                    Shui\Desktop\CE4053_Code_v2.10\CE4053_Code_v2.10\Micrium #
#                    \Software\EvalBoards\TI\lm3s9b92-evalbot\iar\uCOS-III-CE #
#                    4053_PG\Flash\Obj\os_task.o" "C:\Users\Feng              #
#                    Shui\Desktop\CE4053_Code_v2.10\CE4053_Code_v2.10\Micrium #
#                    \Software\EvalBoards\TI\lm3s9b92-evalbot\iar\uCOS-III-CE #
#                    4053_PG\Flash\Obj\os_tick.o" "C:\Users\Feng              #
#                    Shui\Desktop\CE4053_Code_v2.10\CE4053_Code_v2.10\Micrium #
#                    \Software\EvalBoards\TI\lm3s9b92-evalbot\iar\uCOS-III-CE #
#                    4053_PG\Flash\Obj\os_time.o" "C:\Users\Feng              #
#                    Shui\Desktop\CE4053_Code_v2.10\CE4053_Code_v2.10\Micrium #
#                    \Software\EvalBoards\TI\lm3s9b92-evalbot\iar\uCOS-III-CE #
#                    4053_PG\Flash\Obj\os_tmr.o" "C:\Users\Feng               #
#                    Shui\Desktop\CE4053_Code_v2.10\CE4053_Code_v2.10\Micrium #
#                    \Software\EvalBoards\TI\lm3s9b92-evalbot\iar\uCOS-III-CE #
#                    4053_PG\Flash\Obj\os_var.o" "C:\Users\Feng               #
#                    Shui\Desktop\CE4053_Code_v2.10\CE4053_Code_v2.10\Micrium #
#                    \Software\EvalBoards\TI\lm3s9b92-evalbot\iar\uCOS-III-CE #
#                    4053_PG\Flash\Obj\pwm.o" "C:\Users\Feng                  #
#                    Shui\Desktop\CE4053_Code_v2.10\CE4053_Code_v2.10\Micrium #
#                    \Software\EvalBoards\TI\lm3s9b92-evalbot\iar\uCOS-III-CE #
#                    4053_PG\Flash\Obj\qei.o" "C:\Users\Feng                  #
#                    Shui\Desktop\CE4053_Code_v2.10\CE4053_Code_v2.10\Micrium #
#                    \Software\EvalBoards\TI\lm3s9b92-evalbot\iar\uCOS-III-CE #
#                    4053_PG\Flash\Obj\ssi.o" "C:\Users\Feng                  #
#                    Shui\Desktop\CE4053_Code_v2.10\CE4053_Code_v2.10\Micrium #
#                    \Software\EvalBoards\TI\lm3s9b92-evalbot\iar\uCOS-III-CE #
#                    4053_PG\Flash\Obj\sysctl.o" "C:\Users\Feng               #
#                    Shui\Desktop\CE4053_Code_v2.10\CE4053_Code_v2.10\Micrium #
#                    \Software\EvalBoards\TI\lm3s9b92-evalbot\iar\uCOS-III-CE #
#                    4053_PG\Flash\Obj\systick.o" "C:\Users\Feng              #
#                    Shui\Desktop\CE4053_Code_v2.10\CE4053_Code_v2.10\Micrium #
#                    \Software\EvalBoards\TI\lm3s9b92-evalbot\iar\uCOS-III-CE #
#                    4053_PG\Flash\Obj\timer.o" "C:\Users\Feng                #
#                    Shui\Desktop\CE4053_Code_v2.10\CE4053_Code_v2.10\Micrium #
#                    \Software\EvalBoards\TI\lm3s9b92-evalbot\iar\uCOS-III-CE #
#                    4053_PG\Flash\Obj\uart.o" "C:\Users\Feng                 #
#                    Shui\Desktop\CE4053_Code_v2.10\CE4053_Code_v2.10\Micrium #
#                    \Software\EvalBoards\TI\lm3s9b92-evalbot\iar\uCOS-III-CE #
#                    4053_PG\Flash\Obj\udma.o" "C:\Users\Feng                 #
#                    Shui\Desktop\CE4053_Code_v2.10\CE4053_Code_v2.10\Micrium #
#                    \Software\EvalBoards\TI\lm3s9b92-evalbot\iar\uCOS-III-CE #
#                    4053_PG\Flash\Obj\usb.o" "C:\Users\Feng                  #
#                    Shui\Desktop\CE4053_Code_v2.10\CE4053_Code_v2.10\Micrium #
#                    \Software\EvalBoards\TI\lm3s9b92-evalbot\iar\uCOS-III-CE #
#                    4053_PG\Flash\Obj\watchdog.o" --redirect                 #
#                    _Printf=_PrintfFull --redirect _Scanf=_ScanfFull -o      #
#                    "C:\Users\Feng Shui\Desktop\CE4053_Code_v2.10\CE4053_Cod #
#                    e_v2.10\Micrium\Software\EvalBoards\TI\lm3s9b92-evalbot\ #
#                    iar\uCOS-III-CE4053_PG\Flash\Exe\uCOS-III-Ex4.out"       #
#                    --map "C:\Users\Feng Shui\Desktop\CE4053_Code_v2.10\CE40 #
#                    53_Code_v2.10\Micrium\Software\EvalBoards\TI\lm3s9b92-ev #
#                    albot\iar\uCOS-III-CE4053_PG\Flash\List\uCOS-III-Ex4.map #
#                    " --config "C:\Users\Feng Shui\Desktop\CE4053_Code_v2.10 #
#                    \CE4053_Code_v2.10\Micrium\Software\EvalBoards\TI\lm3s9b #
#                    92-evalbot\iar\uCOS-III-CE4053_PG\..\BSP\LM3S9B92_Flash. #
#                    icf" --semihosting --entry __iar_program_start --vfe     #
#                                                                             #
#                                                                             #
###############################################################################

*******************************************************************************
*** RUNTIME MODEL ATTRIBUTES
***

CppFlavor                     = *
__Heap_Handler                = Basic
__SystemLibrary               = DLib
__dlib_dynamic_initialization = normal


*******************************************************************************
*** PLACEMENT SUMMARY
***

"A1":  place at start of [0x00000000-0x0003ffff] { ro section .intvec };
"P1":  place in [from 0x00000000 to 0x0003ffff] { ro };
"P7":  place in [from 0x20000000 to 0x20017fff] { rw, block HEAP, block CSTACK };

  Section             Kind        Address    Size  Object
  -------             ----        -------    ----  ------
"A1":                                       0x11c
  .intvec             const    0x00000000   0x11c  app_vect.o [1]
                             - 0x0000011c   0x11c

"P1":                                      0x8bac
  .text               ro code  0x0000011c  0x121c  os_RecTask.o [1]
  .text               ro code  0x00001338   0x168  os_mem.o [1]
  .text               ro code  0x000014a0   0x51e  os_flag.o [1]
  .text               ro code  0x000019be    0x22  zero_init3.o [5]
  .text               ro code  0x000019e0   0x5d8  os_task.o [1]
  .text               ro code  0x00001fb8   0x160  os_cpu_c.o [1]
  .text               ro code  0x00002118   0x13c  os_msg.o [1]
  CODE                ro code  0x00002254    0x2a  cpu_a.o [1]
  .rodata             const    0x0000227e     0x2  os_cfg_app.o [1]
  .text               ro code  0x00002280   0x1a0  cpu_core.o [1]
  .text               ro code  0x00002420    0x28  cpu_bsp.o [1]
  .text               ro code  0x00002448   0xa80  os_core.o [1]
  .text               ro code  0x00002ec8   0x3f4  os_tick.o [1]
  .text               ro code  0x000032bc   0x124  os_time.o [1]
  .text               ro code  0x000033e0    0x20  srand.o [3]
  .text               ro code  0x00003400    0xe0  rand.o [3]
  .text               ro code  0x000034e0    0x76  ABImemcpy_unaligned.o [5]
  .rodata             const    0x00003556     0x2  os_cfg_app.o [1]
  .text               ro code  0x00003558    0x88  os_prio.o [1]
  .text               ro code  0x000035e0    0x66  lib_mem.o [1]
  .rodata             const    0x00003646     0x2  os_cfg_app.o [1]
  .text               ro code  0x00003648    0xa8  bsp.o [1]
  .text               ro code  0x000036f0   0x2a4  os_mutex.o [1]
  .text               ro code  0x00003994   0x248  os_q.o [1]
  .text               ro code  0x00003bdc   0x2e4  os_tmr.o [1]
  .text               ro code  0x00003ec0   0x210  os_dbg.o [1]
  .text               ro code  0x000040d0    0xe0  os_cfg_app.o [1]
  CODE                ro code  0x000041b0    0x84  os_cpu_a.o [1]
  .text               ro code  0x00004234     0x2  xtls.o [3]
  .rodata             const    0x00004236     0x2  os_dbg.o [1]
  .text               ro code  0x00004238   0x490  sysctl.o [1]
  .text               ro code  0x000046c8   0x256  bsp_int.o [1]
  .rodata             const    0x0000491e     0x2  os_dbg.o [1]
  .text               ro code  0x00004920   0x334  bsp_display.o [1]
  .text               ro code  0x00004c54    0xa0  bsp_io.o [1]
  .text               ro code  0x00004cf4   0x154  bsp_sensors.o [1]
  .text               ro code  0x00004e48   0x1f8  bsp_motor.o [1]
  .text               ro code  0x00005040   0x13c  cpu_c.o [1]
  .text               ro code  0x0000517c    0xac  i2c.o [1]
  .text               ro code  0x00005228   0x2d0  gpio.o [1]
  .text               ro code  0x000054f8    0x98  pwm.o [1]
  .text               ro code  0x00005590  0x116e  xprintffull.o [3]
  .text               ro code  0x000066fe    0x20  xmbtowc.o [3]
  .rodata             const    0x0000671e     0x2  os_dbg.o [1]
  .text               ro code  0x00006720    0x16  strchr.o [5]
  .rodata             const    0x00006736     0x2  os_dbg.o [1]
  .text               ro code  0x00006738    0x36  strlen.o [5]
  .rodata             const    0x0000676e     0x2  os_dbg.o [1]
  .text               ro code  0x00006770    0x58  memchr.o [5]
  .text               ro code  0x000067c8     0xa  xmbcurmax.o [3]
  .rodata             const    0x000067d2     0x2  os_dbg.o [1]
  .text               ro code  0x000067d4    0xb0  xxmemxmalloc.o [3]
  .text               ro code  0x00006884    0x1a  xwctomb.o [3]
  .rodata             const    0x0000689e     0x2  os_dbg.o [1]
  .text               ro code  0x000068a0    0x80  xxmemxfree.o [3]
  .text               ro code  0x00006920    0xee  I64DivMod.o [5]
  .rodata             const    0x00006a0e     0x2  os_dbg.o [1]
  .text               ro code  0x00006a10   0x1a2  DblMul.o [4]
  .text               ro code  0x00006bb2    0x42  xdnorm.o [4]
  .text               ro code  0x00006bf4    0x2e  DblCmpLe.o [4]
  .rodata             const    0x00006c22     0x2  os_dbg.o [1]
  .text               ro code  0x00006c24    0x2e  DblCmpGe.o [4]
  .rodata             const    0x00006c52     0x2  os_dbg.o [1]
  .text               ro code  0x00006c54   0x10c  xdscale.o [4]
  .text               ro code  0x00006d60    0x58  DblToI32.o [4]
  .text               ro code  0x00006db8    0x30  I32ToDbl.o [4]
  .text               ro code  0x00006de8   0x180  DblSub.o [4]
  .text               ro code  0x00006f68   0x246  DblDiv.o [4]
  .rodata             const    0x000071ae     0x2  os_dbg.o [1]
  .text               ro code  0x000071b0    0x6c  localeconv.o [3]
  .text               ro code  0x0000721c     0xe  div.o [3]
  .rodata             const    0x0000722a     0x2  os_dbg.o [1]
  .text               ro code  0x0000722c    0x14  setlocale.o [3]
  .text               ro code  0x00007240    0x60  xencoding_sb.o [3]
  .text               ro code  0x000072a0    0x2c  xgetmemchunk.o [3]
  .text               ro code  0x000072cc     0x2  I64DivZer.o [5]
  .rodata             const    0x000072ce     0x2  os_dbg.o [1]
  .text               ro code  0x000072d0    0xd4  DblAdd.o [4]
  .text               ro code  0x000073a4   0x960  app.o [1]
  .text               ro code  0x00007d04    0x40  ethernet.o [1]
  .text               ro code  0x00007d44    0x24  printf.o [3]
  .rodata             const    0x00007d68   0x1dc  bsp_display.o [1]
  .text               ro code  0x00007f44    0xe0  XShHandles.o [3]
  .text               ro code  0x00008024    0xd6  xfspos.o [3]
  .rodata             const    0x000080fa     0x2  os_dbg.o [1]
  .text               ro code  0x000080fc    0xb0  fflush.o [3]
  .text               ro code  0x000081ac     0xc  xfgpos.o [3]
  .text               ro code  0x000081b8    0x4c  lseek.o [6]
  .text               ro code  0x00008204     0xc  errno.o [3]
  .text               ro code  0x00008210     0x4  xsyslock_nop.o [3]
  .text               ro code  0x00008214    0x10  write.o [6]
  .text               ro code  0x00008224    0x1e  dwrite.o [6]
  .text               ro code  0x00008242    0x20  iarwstd.o [6]
  .text               ro code  0x00008262    0x22  iarwrite.o [6]
  .text               ro code  0x00008284    0x6c  iarttio.o [6]
  .text               ro code  0x000082f0     0x8  XShttio.o [3]
  .text               ro code  0x000082f8    0xd4  packbits_init.o [5]
  .text               ro code  0x000083cc     0x6  abort.o [3]
  .rodata             const    0x000083d2     0x2  os_dbg.o [1]
  .text               ro code  0x000083d4    0x14  exit.o [6]
  .text               ro code  0x000083e8    0xb6  xfwprep.o [3]
  .text               ro code  0x0000849e    0x22  fseek.o [3]
  .text               ro code  0x000084c0    0x7c  xfofind.o [3]
  .text               ro code  0x0000853c    0x7a  fclose.o [3]
  .text               ro code  0x000085b6    0x1a  close.o [6]
  .text               ro code  0x000085d0    0x16  remove.o [6]
  .rodata             const    0x000085e6     0x2  os_dbg.o [1]
  .rodata             const    0x000085e8    0x5c  sysctl.o [1]
  .text               ro code  0x00008644    0x58  xcloseall.o [3]
  .text               ro code  0x0000869c    0x56  fputc.o [3]
  .rodata             const    0x000086f2     0x2  os_dbg.o [1]
  .rodata             const    0x000086f4    0x50  bsp_display.o [1]
  .rodata             const    0x00008744    0x48  gpio.o [1]
  .rodata             const    0x0000878c    0x34  app.o [1]
  .rodata             const    0x000087c0    0x34  os_dbg.o [1]
  .rodata             const    0x000087f4    0x30  os_dbg.o [1]
  .rodata             const    0x00008824    0x28  os_dbg.o [1]
  .rodata             const    0x0000884c    0x28  os_dbg.o [1]
  .text               ro code  0x00008874    0x28  data_init.o [5]
  .rodata             const    0x0000889c    0x24  os_dbg.o [1]
  .iar.init_table     const    0x000088c0    0x2c  - Linker created -
  .rodata             const    0x000088ec    0x20  os_dbg.o [1]
  .rodata             const    0x0000890c    0x20  os_RecTask.o [1]
  .rodata             const    0x0000892c    0x20  os_RecTask.o [1]
  .rodata             const    0x0000894c    0x20  os_RecTask.o [1]
  .rodata             const    0x0000896c    0x1c  os_RecTask.o [1]
  .rodata             const    0x00008988    0x1c  os_RecTask.o [1]
  .rodata             const    0x000089a4    0x1c  os_RecTask.o [1]
  .text               ro code  0x000089c0    0x1a  cmain.o [5]
  .text               ro code  0x000089da     0x4  low_level_init.o [3]
  .text               ro code  0x000089de     0x4  exit.o [3]
  .rodata             const    0x000089e2     0x2  os_dbg.o [1]
  .text               ro code  0x000089e4     0xe  cexit.o [5]
  .rodata             const    0x000089f2     0x2  os_dbg.o [1]
  .rodata             const    0x000089f4    0x18  app.o [1]
  .rodata             const    0x00008a0c    0x18  app.o [1]
  .rodata             const    0x00008a24    0x18  os_RecTask.o [1]
  .rodata             const    0x00008a3c    0x18  os_RecTask.o [1]
  .rodata             const    0x00008a54    0x18  os_tmr.o [1]
  .text               ro code  0x00008a6c    0x16  xprout.o [3]
  .rodata             const    0x00008a82     0x2  os_dbg.o [1]
  .text               ro code  0x00008a84     0xc  putchar.o [3]
  .rodata             const    0x00008a90    0x14  os_core.o [1]
  .rodata             const    0x00008aa4    0x14  os_RecTask.o [1]
  .rodata             const    0x00008ab8    0x14  os_RecTask.o [1]
  .rodata             const    0x00008acc    0x14  os_tick.o [1]
  .rodata             const    0x00008ae0    0x10  app.o [1]
  .rodata             const    0x00008af0    0x10  app.o [1]
  .rodata             const    0x00008b00    0x10  app.o [1]
  .rodata             const    0x00008b10    0x10  app.o [1]
  .rodata             const    0x00008b20     0xc  app.o [1]
  .rodata             const    0x00008b2c     0xc  app.o [1]
  .rodata             const    0x00008b38     0xc  os_core.o [1]
  .rodata             const    0x00008b44     0xc  sysctl.o [1]
  .rodata             const    0x00008b50     0xc  sysctl.o [1]
  .rodata             const    0x00008b5c     0xc  sysctl.o [1]
  .text               ro code  0x00008b68     0xc  app_vect.o [1]
  .text               ro code  0x00008b74     0xc  cstartup_M.o [5]
  .rodata             const    0x00008b80     0x8  bsp_display.o [1]
  .rodata             const    0x00008b88     0x8  bsp_display.o [1]
  .rodata             const    0x00008b90     0x8  os_core.o [1]
  .rodata             const    0x00008b98     0x8  os_task.o [1]
  .rodata             const    0x00008ba0     0x4  os_cfg_app.o [1]
  .rodata             const    0x00008ba4     0x4  os_cfg_app.o [1]
  .rodata             const    0x00008ba8     0x4  os_cfg_app.o [1]
  .rodata             const    0x00008bac     0x4  os_cfg_app.o [1]
  .rodata             const    0x00008bb0     0x4  os_cfg_app.o [1]
  .rodata             const    0x00008bb4     0x4  os_cfg_app.o [1]
  .rodata             const    0x00008bb8     0x4  os_cfg_app.o [1]
  .rodata             const    0x00008bbc     0x4  os_cfg_app.o [1]
  .rodata             const    0x00008bc0     0x4  os_cfg_app.o [1]
  .rodata             const    0x00008bc4     0x4  os_cfg_app.o [1]
  .rodata             const    0x00008bc8     0x4  os_cfg_app.o [1]
  .rodata             const    0x00008bcc     0x4  os_cfg_app.o [1]
  .rodata             const    0x00008bd0     0x4  os_cfg_app.o [1]
  .rodata             const    0x00008bd4     0x4  os_cfg_app.o [1]
  .rodata             const    0x00008bd8     0x4  os_cfg_app.o [1]
  .rodata             const    0x00008bdc     0x4  os_cfg_app.o [1]
  .rodata             const    0x00008be0     0x4  os_cfg_app.o [1]
  .rodata             const    0x00008be4     0x4  os_cfg_app.o [1]
  .rodata             const    0x00008be8     0x4  os_cfg_app.o [1]
  .rodata             const    0x00008bec     0x4  os_cfg_app.o [1]
  .rodata             const    0x00008bf0     0x4  os_cfg_app.o [1]
  .rodata             const    0x00008bf4     0x4  os_cfg_app.o [1]
  .rodata             const    0x00008bf8     0x4  os_cfg_app.o [1]
  .rodata             const    0x00008bfc     0x4  os_dbg.o [1]
  .rodata             const    0x00008c00     0x4  os_dbg.o [1]
  .rodata             const    0x00008c04     0x4  os_dbg.o [1]
  .rodata             const    0x00008c08     0x2  os_dbg.o [1]
  .rodata             const    0x00008c0a     0x2  os_dbg.o [1]
  .rodata             const    0x00008c0c     0x1  os_cfg_app.o [1]
  .rodata             const    0x00008c0d     0x1  os_cfg_app.o [1]
  .rodata             const    0x00008c0e     0x1  os_dbg.o [1]
  .rodata             const    0x00008c0f     0x1  os_dbg.o [1]
  .rodata             const    0x00008c10     0x1  os_dbg.o [1]
  .rodata             const    0x00008c11     0x1  os_dbg.o [1]
  .rodata             const    0x00008c12     0x1  os_dbg.o [1]
  .rodata             const    0x00008c13     0x1  os_dbg.o [1]
  .rodata             const    0x00008c14     0x1  os_dbg.o [1]
  .rodata             const    0x00008c15     0x1  os_dbg.o [1]
  .rodata             const    0x00008c16     0x1  os_dbg.o [1]
  .rodata             const    0x00008c17     0x1  os_dbg.o [1]
  .rodata             const    0x00008c18     0x1  os_dbg.o [1]
  .rodata             const    0x00008c19     0x1  os_dbg.o [1]
  .rodata             const    0x00008c1a     0x1  os_dbg.o [1]
  .rodata             const    0x00008c1b     0x1  os_dbg.o [1]
  .rodata             const    0x00008c1c     0x1  os_dbg.o [1]
  .rodata             const    0x00008c1d     0x1  os_dbg.o [1]
  .rodata             const    0x00008c1e     0x1  os_dbg.o [1]
  .rodata             const    0x00008c1f     0x1  os_dbg.o [1]
  .rodata             const    0x00008c20     0x1  os_dbg.o [1]
  .rodata             const    0x00008c21     0x1  os_dbg.o [1]
  .rodata             const    0x00008c22     0x1  os_dbg.o [1]
  .rodata             const    0x00008c23     0x1  os_dbg.o [1]
  .rodata             const    0x00008c24     0x1  os_dbg.o [1]
  .rodata             const    0x00008c25     0x1  os_dbg.o [1]
  .rodata             const    0x00008c26     0x1  os_dbg.o [1]
  .rodata             const    0x00008c27     0x1  os_dbg.o [1]
  .rodata             const    0x00008c28     0x1  os_dbg.o [1]
  .rodata             const    0x00008c29     0x1  os_dbg.o [1]
  .rodata             const    0x00008c2a     0x1  os_dbg.o [1]
  .rodata             const    0x00008c2b     0x1  os_dbg.o [1]
  .rodata             const    0x00008c2c     0x1  os_dbg.o [1]
  .rodata             const    0x00008c2d     0x1  os_dbg.o [1]
  .rodata             const    0x00008c2e     0x1  os_dbg.o [1]
  .rodata             const    0x00008c2f     0x1  os_dbg.o [1]
  .rodata             const    0x00008c30     0x1  os_dbg.o [1]
  .text               ro code  0x00008c34     0x0  cstart_closeall.o [5]
  .rodata             const    0x00008c34     0x0  zero_init3.o [5]
  .rodata             const    0x00008c34     0x0  packbits_init.o [5]
  Initializer bytes   ro data  0x00008c34    0x94  <for P7 s0>
                             - 0x00008cc8  0x8bac

"P7", part 1 of 3:                          0x27c
  P7 s0                        0x20000000   0x27c  <Init block>
    __DLIB_PERTHREAD  inited   0x20000000    0x8c  rand.o [3]
    __DLIB_PERTHREAD  inited   0x2000008c    0x88  localeconv.o [3]
    __DLIB_PERTHREAD  inited   0x20000114    0x74  setlocale.o [3]
    .data             inited   0x20000188    0x40  xfiles.o [3]
    .data             inited   0x200001c8    0x40  xfiles.o [3]
    .data             inited   0x20000208    0x40  xfiles.o [3]
    .data             inited   0x20000248    0x20  xfiles.o [3]
    .data             inited   0x20000268     0x8  XShttio.o [3]
    .data             inited   0x20000270     0x4  app.o [1]
    .data             inited   0x20000274     0x4  bsp_display.o [1]
    __DLIB_PERTHREAD  inited   0x20000278     0x4  errno.o [3]
                             - 0x2000027c   0x27c

"P7", part 2 of 3:                         0x3e9c
  .bss                zero     0x2000027c   0x640  os_cfg_app.o [1]
  .bss                zero     0x200008bc   0x258  os_RecTask.o [1]
  .bss                zero     0x20000b14   0x200  app.o [1]
  .bss                zero     0x20000d14   0x200  app.o [1]
  .bss                zero     0x20000f14   0x200  app.o [1]
  .bss                zero     0x20001114   0x200  app.o [1]
  .bss                zero     0x20001314   0x200  app.o [1]
  .bss                zero     0x20001514   0x200  os_cfg_app.o [1]
  .bss                zero     0x20001714   0x200  os_cfg_app.o [1]
  .bss                zero     0x20001914   0x200  os_cfg_app.o [1]
  .bss                zero     0x20001b14   0x200  os_cfg_app.o [1]
  .bss                zero     0x20001d14   0x200  os_RecTask.o [1]
  .bss                zero     0x20001f14   0x190  app.o [1]
  .bss                zero     0x200020a4   0x190  app.o [1]
  .bss                zero     0x20002234   0x190  app.o [1]
  .bss                zero     0x200023c4   0x190  app.o [1]
  .bss                zero     0x20002554   0x190  app.o [1]
  .bss                zero     0x200026e4   0x190  app.o [1]
  .bss                zero     0x20002874   0x190  app.o [1]
  .bss                zero     0x20002a04   0x190  app.o [1]
  .bss                zero     0x20002b94   0x190  os_RecTask.o [1]
  .bss                zero     0x20002d24   0x190  os_RecTask.o [1]
  .bss                zero     0x20002eb4   0x190  os_RecTask.o [1]
  .bss                zero     0x20003044   0x118  bsp_int.o [1]
  .bss                zero     0x2000315c   0x118  os_RecTask.o [1]
  .bss                zero     0x20003274    0xf0  os_RecTask.o [1]
  .bss                zero     0x20003364    0xf0  os_RecTask.o [1]
  .bss                zero     0x20003454    0xf0  os_var.o [1]
  .bss                zero     0x20003544    0x9c  app.o [1]
  .bss                zero     0x200035e0    0x9c  app.o [1]
  .bss                zero     0x2000367c    0x9c  app.o [1]
  .bss                zero     0x20003718    0x9c  app.o [1]
  .bss                zero     0x200037b4    0x9c  app.o [1]
  .bss                zero     0x20003850    0x9c  os_RecTask.o [1]
  .bss                zero     0x200038ec    0x9c  os_var.o [1]
  .bss                zero     0x20003988    0x9c  os_var.o [1]
  .bss                zero     0x20003a24    0x9c  os_var.o [1]
  .bss                zero     0x20003ac0    0x80  XShHandles.o [3]
  .bss                zero     0x20003b40    0x68  os_cfg_app.o [1]
  .bss                zero     0x20003ba8    0x68  os_cfg_app.o [1]
  .bss                zero     0x20003c10    0x50  os_RecTask.o [1]
  .bss                zero     0x20003c60    0x50  os_RecTask.o [1]
  .bss                zero     0x20003cb0    0x50  xfiles.o [3]
  .bss                zero     0x20003d00    0x50  xfiles.o [3]
  .bss                zero     0x20003d50    0x40  app.o [1]
  .bss                zero     0x20003d90    0x40  app.o [1]
  .bss                zero     0x20003dd0    0x40  app.o [1]
  .bss                zero     0x20003e10    0x30  app.o [1]
  .bss                zero     0x20003e40    0x28  os_RecTask.o [1]
  .bss                zero     0x20003e68    0x24  app.o [1]
  .bss                zero     0x20003e8c    0x24  app.o [1]
  .bss                zero     0x20003eb0    0x24  app.o [1]
  .bss                zero     0x20003ed4    0x20  os_RecTask.o [1]
  .bss                zero     0x20003ef4    0x20  os_RecTask.o [1]
  .bss                zero     0x20003f14    0x20  os_RecTask.o [1]
  .bss                zero     0x20003f34    0x20  os_RecTask.o [1]
  .bss                zero     0x20003f54    0x20  os_RecTask.o [1]
  .bss                zero     0x20003f74    0x20  os_RecTask.o [1]
  .bss                zero     0x20003f94    0x20  os_RecTask.o [1]
  .bss                zero     0x20003fb4    0x20  os_RecTask.o [1]
  .bss                zero     0x20003fd4    0x10  cpu_core.o [1]
  .bss                zero     0x20003fe4     0xc  os_RecTask.o [1]
  .bss                zero     0x20003ff0     0x8  os_RecTask.o [1]
  .bss                zero     0x20003ff8     0x8  os_var.o [1]
  .bss                zero     0x20004000     0x8  xxmemxmalloc.o [3]
  .bss                zero     0x20004008     0x4  app.o [1]
  .bss                zero     0x2000400c     0x4  app.o [1]
  .bss                zero     0x20004010     0x4  app.o [1]
  .bss                zero     0x20004014     0x4  app.o [1]
  .bss                zero     0x20004018     0x4  app.o [1]
  .bss                zero     0x2000401c     0x4  app.o [1]
  .bss                zero     0x20004020     0x4  app.o [1]
  .bss                zero     0x20004024     0x4  app.o [1]
  .bss                zero     0x20004028     0x4  app.o [1]
  .bss                zero     0x2000402c     0x4  app.o [1]
  .bss                zero     0x20004030     0x4  app.o [1]
  .bss                zero     0x20004034     0x4  app.o [1]
  .bss                zero     0x20004038     0x4  app.o [1]
  .bss                zero     0x2000403c     0x4  app.o [1]
  .bss                zero     0x20004040     0x4  app.o [1]
  .bss                zero     0x20004044     0x4  app.o [1]
  .bss                zero     0x20004048     0x4  app.o [1]
  .bss                zero     0x2000404c     0x4  app.o [1]
  .bss                zero     0x20004050     0x4  app.o [1]
  .bss                zero     0x20004054     0x4  app.o [1]
  .bss                zero     0x20004058     0x4  bsp.o [1]
  .bss                zero     0x2000405c     0x4  bsp_display.o [1]
  .bss                zero     0x20004060     0x4  cpu_core.o [1]
  .bss                zero     0x20004064     0x4  cpu_core.o [1]
  .bss                zero     0x20004068     0x4  cpu_core.o [1]
  .bss                zero     0x2000406c     0x4  cpu_core.o [1]
  .bss                zero     0x20004070     0x4  cpu_core.o [1]
  .bss                zero     0x20004074     0x4  cpu_core.o [1]
  .bss                zero     0x20004078     0x4  os_cpu_c.o [1]
  .bss                zero     0x2000407c     0x4  os_prio.o [1]
  .bss                zero     0x20004080     0x4  os_RecTask.o [1]
  .bss                zero     0x20004084     0x4  os_RecTask.o [1]
  .bss                zero     0x20004088     0x4  os_RecTask.o [1]
  .bss                zero     0x2000408c     0x4  os_RecTask.o [1]
  .bss                zero     0x20004090     0x4  os_RecTask.o [1]
  .bss                zero     0x20004094     0x4  os_RecTask.o [1]
  .bss                zero     0x20004098     0x4  os_RecTask.o [1]
  .bss                zero     0x2000409c     0x4  os_RecTask.o [1]
  .bss                zero     0x200040a0     0x4  os_RecTask.o [1]
  .bss                zero     0x200040a4     0x4  os_RecTask.o [1]
  .bss                zero     0x200040a8     0x4  os_RecTask.o [1]
  .bss                zero     0x200040ac     0x4  os_RecTask.o [1]
  .bss                zero     0x200040b0     0x4  os_var.o [1]
  .bss                zero     0x200040b4     0x4  os_var.o [1]
  .bss                zero     0x200040b8     0x4  os_var.o [1]
  .bss                zero     0x200040bc     0x4  os_var.o [1]
  .bss                zero     0x200040c0     0x4  os_var.o [1]
  .bss                zero     0x200040c4     0x4  os_var.o [1]
  .bss                zero     0x200040c8     0x4  os_var.o [1]
  .bss                zero     0x200040cc     0x4  os_var.o [1]
  .bss                zero     0x200040d0     0x4  os_var.o [1]
  .bss                zero     0x200040d4     0x4  os_var.o [1]
  .bss                zero     0x200040d8     0x4  os_var.o [1]
  .bss                zero     0x200040dc     0x4  os_var.o [1]
  .bss                zero     0x200040e0     0x4  os_var.o [1]
  .bss                zero     0x200040e4     0x4  os_var.o [1]
  .bss                zero     0x200040e8     0x4  os_var.o [1]
  .bss                zero     0x200040ec     0x4  os_var.o [1]
  .bss                zero     0x200040f0     0x4  os_var.o [1]
  .bss                zero     0x200040f4     0x4  os_var.o [1]
  .bss                zero     0x200040f8     0x4  os_var.o [1]
  .bss                zero     0x200040fc     0x4  xgetmemchunk.o [3]
  .bss                zero     0x20004100     0x2  cpu_core.o [1]
  .bss                zero     0x20004102     0x2  cpu_core.o [1]
  .bss                zero     0x20004104     0x2  os_var.o [1]
  .bss                zero     0x20004106     0x2  os_var.o [1]
  .bss                zero     0x20004108     0x2  os_var.o [1]
  .bss                zero     0x2000410a     0x2  os_var.o [1]
  .bss                zero     0x2000410c     0x2  os_var.o [1]
  .bss                zero     0x2000410e     0x1  app.o [1]
  .bss                zero     0x2000410f     0x1  app.o [1]
  .bss                zero     0x20004110     0x1  app.o [1]
  .bss                zero     0x20004111     0x1  app.o [1]
  .bss                zero     0x20004112     0x1  app.o [1]
  .bss                zero     0x20004113     0x1  os_var.o [1]
  .bss                zero     0x20004114     0x1  os_var.o [1]
  .bss                zero     0x20004115     0x1  os_var.o [1]
  .bss                zero     0x20004116     0x1  os_var.o [1]
  .bss                zero     0x20004117     0x1  os_var.o [1]
                             - 0x20004118  0x3e9c

"P7", part 3 of 3:                          0x400
  HEAP                         0x20004118     0x0  <Block>
  CSTACK                       0x20004118   0x400  <Block>
    CSTACK            uninit   0x20004118   0x400  <Block tail>
                             - 0x20004518   0x400


*******************************************************************************
*** INIT TABLE
***

          Address     Size
          -------     ----
Zero (__iar_zero_init3)
    1 destination range, total size 0x3e9c:
          0x2000027c  0x3e9c

Copy/packbits (__iar_packbits_init3)
    1 source range, total size 0x94 (23% of destination):
          0x00008c34    0x94
    1 destination range, total size 0x27c:
          0x20000000   0x27c



*******************************************************************************
*** MODULE SUMMARY
***

    Module                 ro code  ro data  rw data
    ------                 -------  -------  -------
C:\Users\Feng Shui\Desktop\CE4053_Code_v2.10\CE4053_Code_v2.10\Micrium\Software\EvalBoards\TI\lm3s9b92-evalbot\iar\uCOS-III-CE4053_PG\Flash\Obj: [1]
    app.o                    2 400      189    6 977
    app_vect.o                  12      284
    bsp.o                      168                 4
    bsp_display.o              820      573        8
    bsp_int.o                  598               280
    bsp_io.o                   160
    bsp_motor.o                504
    bsp_sensors.o              340
    cpu_a.o                     42
    cpu_bsp.o                   40
    cpu_c.o                    316
    cpu_core.o                 416                44
    ethernet.o                  64
    gpio.o                     720       72
    i2c.o                      172
    lib_mem.o                  102
    os_RecTask.o             4 636      268    3 752
    os_cfg_app.o               224      100    3 856
    os_core.o                2 688       40
    os_cpu_a.o                 132
    os_cpu_c.o                 352                 4
    os_dbg.o                   528      339
    os_flag.o                1 310
    os_mem.o                   360
    os_msg.o                   316
    os_mutex.o                 676
    os_prio.o                  136                 4
    os_q.o                     584
    os_task.o                1 496        8
    os_tick.o                1 012       20
    os_time.o                  292
    os_tmr.o                   740       24
    os_var.o                                     807
    pwm.o                      152
    sysctl.o                 1 168      128
    ------------------------------------------------
    Total:                  23 676    2 045   15 736

command line: [2]
    ------------------------------------------------
    Total:

dl7M_tlf.a: [3]
    XShHandles.o               224               128
    XShttio.o                    8        2        8
    abort.o                      6
    div.o                       14
    errno.o                     12        1        4
    exit.o                       4
    fclose.o                   122
    fflush.o                   176
    fputc.o                     86
    fseek.o                     34
    localeconv.o               108       32      136
    low_level_init.o             4
    printf.o                    36
    putchar.o                   12
    rand.o                     224       32      140
    setlocale.o                 20       27      116
    srand.o                     32
    xcloseall.o                 88
    xencoding_sb.o              96
    xfgpos.o                    12
    xfiles.o                             52      384
    xfofind.o                  124
    xfspos.o                   214
    xfwprep.o                  182
    xgetmemchunk.o              44                 4
    xmbcurmax.o                 10
    xmbtowc.o                   32
    xprintffull.o            4 462
    xprout.o                    22
    xsyslock_nop.o               4
    xtls.o                       2
    xwctomb.o                   26
    xxmemxfree.o               128
    xxmemxmalloc.o             176                 8
    ------------------------------------------------
    Total:                   6 744      146      928

m7M_tl.a: [4]
    DblAdd.o                   212
    DblCmpGe.o                  46
    DblCmpLe.o                  46
    DblDiv.o                   582
    DblMul.o                   418
    DblSub.o                   384
    DblToI32.o                  88
    I32ToDbl.o                  48
    xdnorm.o                    66
    xdscale.o                  268
    ------------------------------------------------
    Total:                   2 158

rt7M_tl.a: [5]
    ABImemcpy_unaligned.o      118
    I64DivMod.o                238
    I64DivZer.o                  2
    cexit.o                     14
    cmain.o                     26
    cstart_closeall.o
    cstartup_M.o                12
    data_init.o                 40
    memchr.o                    88
    packbits_init.o            212
    strchr.o                    22
    strlen.o                    54
    zero_init3.o                34
    ------------------------------------------------
    Total:                     860

shb_l.a: [6]
    close.o                     26
    dwrite.o                    30
    exit.o                      20
    iarttio.o                  108
    iarwrite.o                  34
    iarwstd.o                   32
    lseek.o                     76
    remove.o                    22
    write.o                     16
    ------------------------------------------------
    Total:                     364

    Gaps                         3
    Linker created                       44    1 024
----------------------------------------------------
    Grand Total:            33 805    2 235   17 688


*******************************************************************************
*** ENTRY LIST
***

Entry                      Address   Size  Type      Object
-----                      -------   ----  ----      ------
?main                   0x000089c1         Code  Gb  cmain.o [5]
AppPerformanceMeasure   0x00007981   0xac  Code  Lc  app.o [1]
AppPerformanceMeasureStk
                        0x20001314  0x200  Data  Lc  app.o [1]
AppPerformanceMeasureTCB
                        0x200037b4   0x9c  Data  Lc  app.o [1]
AppRobotMotorDriveSensorEnable
                        0x00007aff   0x1c  Code  Lc  app.o [1]
AppTaskOne              0x000075b5  0x1e0  Code  Lc  app.o [1]
AppTaskOneStk           0x20000d14  0x200  Data  Lc  app.o [1]
AppTaskOneTCB           0x200035e0   0x9c  Data  Lc  app.o [1]
AppTaskOneTaskInfo      0x20003d50   0x40  Data  Lc  app.o [1]
AppTaskStart            0x000073f9  0x1bc  Code  Lc  app.o [1]
AppTaskStartStk         0x20000b14  0x200  Data  Lc  app.o [1]
AppTaskStartTCB         0x20003544   0x9c  Data  Lc  app.o [1]
AppTaskThree            0x0000793d   0x42  Code  Lc  app.o [1]
AppTaskThreeStk         0x20001114  0x200  Data  Lc  app.o [1]
AppTaskThreeTCB         0x20003718   0x9c  Data  Lc  app.o [1]
AppTaskThreeTaskInfo    0x20003dd0   0x40  Data  Lc  app.o [1]
AppTaskTwo              0x00007799  0x1a2  Code  Lc  app.o [1]
AppTaskTwoStk           0x20000f14  0x200  Data  Lc  app.o [1]
AppTaskTwoTCB           0x2000367c   0x9c  Data  Lc  app.o [1]
AppTaskTwoTaskInfo      0x20003d90   0x40  Data  Lc  app.o [1]
App_BusFault_ISR        0x00008b6d    0x2  Code  Lc  app_vect.o [1]
App_Fault_ISR           0x00008b6b    0x2  Code  Lc  app_vect.o [1]
App_MemFault_ISR        0x00008b71    0x2  Code  Lc  app_vect.o [1]
App_NMI_ISR             0x00008b69    0x2  Code  Lc  app_vect.o [1]
App_Spurious_ISR        0x00008b73    0x2  Code  Lc  app_vect.o [1]
App_UsageFault_ISR      0x00008b6f    0x2  Code  Lc  app_vect.o [1]
Array_Index             0x20004054    0x4  Data  Gb  app.o [1]
BSP_BumpSensorsInit     0x00004cf5   0x18  Code  Gb  bsp_sensors.o [1]
BSP_CPUClkFreq          0x000036ad   0x12  Code  Gb  bsp.o [1]
BSP_CPU_ClkFreq_MHz     0x20004058    0x4  Data  Gb  bsp.o [1]
BSP_DisplayClear        0x000049f9   0x4c  Code  Gb  bsp_display.o [1]
BSP_DisplayInit         0x00004b47   0xd8  Code  Gb  bsp_display.o [1]
BSP_DisplayOn           0x00004b0b   0x3c  Code  Gb  bsp_display.o [1]
BSP_DisplayStringDraw   0x00004a45   0xc6  Code  Gb  bsp_display.o [1]
BSP_DisplayWriteArray   0x0000497b   0x3e  Code  Lc  bsp_display.o [1]
BSP_DisplayWriteByte    0x00004949   0x32  Code  Lc  bsp_display.o [1]
BSP_DisplayWriteFinal   0x000049b9   0x40  Code  Lc  bsp_display.o [1]
BSP_DisplayWriteFirst   0x00004921   0x28  Code  Lc  bsp_display.o [1]
BSP_Init                0x00003649   0x64  Code  Gb  bsp.o [1]
BSP_IntDisAll           0x000046c9    0x8  Code  Gb  bsp_int.o [1]
BSP_IntEn               0x000046d1   0x10  Code  Gb  bsp_int.o [1]
BSP_IntHandler          0x000048f7   0x20  Code  Lc  bsp_int.o [1]
BSP_IntHandlerADC0      0x0000477b    0xa  Code  Gb  bsp_int.o [1]
BSP_IntHandlerADC1      0x00004785    0xa  Code  Gb  bsp_int.o [1]
BSP_IntHandlerADC1_0    0x000048b1    0xa  Code  Gb  bsp_int.o [1]
BSP_IntHandlerADC1_1    0x000048bb    0xa  Code  Gb  bsp_int.o [1]
BSP_IntHandlerADC1_2    0x000048c5    0xa  Code  Gb  bsp_int.o [1]
BSP_IntHandlerADC1_3    0x000048cf    0xa  Code  Gb  bsp_int.o [1]
BSP_IntHandlerADC2      0x0000478f    0xa  Code  Gb  bsp_int.o [1]
BSP_IntHandlerADC3      0x00004799    0xa  Code  Gb  bsp_int.o [1]
BSP_IntHandlerCAN0      0x0000486b    0xa  Code  Gb  bsp_int.o [1]
BSP_IntHandlerCAN1      0x00004875    0xa  Code  Gb  bsp_int.o [1]
BSP_IntHandlerCOMP0     0x000047e9    0xa  Code  Gb  bsp_int.o [1]
BSP_IntHandlerCOMP1     0x000047f3    0xa  Code  Gb  bsp_int.o [1]
BSP_IntHandlerCOMP2     0x000047fd    0xa  Code  Gb  bsp_int.o [1]
BSP_IntHandlerDummy     0x0000491d    0x2  Code  Lc  bsp_int.o [1]
BSP_IntHandlerEPI       0x000048e3    0xa  Code  Gb  bsp_int.o [1]
BSP_IntHandlerETH       0x0000487f    0xa  Code  Gb  bsp_int.o [1]
BSP_IntHandlerFLASH     0x00004811    0xa  Code  Gb  bsp_int.o [1]
BSP_IntHandlerGPIOA     0x00004721    0xa  Code  Gb  bsp_int.o [1]
BSP_IntHandlerGPIOB     0x0000472b    0xa  Code  Gb  bsp_int.o [1]
BSP_IntHandlerGPIOC     0x00004735    0xa  Code  Gb  bsp_int.o [1]
BSP_IntHandlerGPIOD     0x0000473f    0xa  Code  Gb  bsp_int.o [1]
BSP_IntHandlerGPIOE     0x00004749    0xa  Code  Gb  bsp_int.o [1]
BSP_IntHandlerGPIOF     0x0000481b    0xa  Code  Gb  bsp_int.o [1]
BSP_IntHandlerGPIOG     0x00004825    0xa  Code  Gb  bsp_int.o [1]
BSP_IntHandlerGPIOH     0x0000482f    0xa  Code  Gb  bsp_int.o [1]
BSP_IntHandlerGPIOJ     0x000048ed    0xa  Code  Gb  bsp_int.o [1]
BSP_IntHandlerHIBERNATE
                        0x00004889    0xa  Code  Gb  bsp_int.o [1]
BSP_IntHandlerI2C0      0x00004771    0xa  Code  Gb  bsp_int.o [1]
BSP_IntHandlerI2C1      0x00004861    0xa  Code  Gb  bsp_int.o [1]
BSP_IntHandlerI2S0      0x000048d9    0xa  Code  Gb  bsp_int.o [1]
BSP_IntHandlerSSI0      0x00004767    0xa  Code  Gb  bsp_int.o [1]
BSP_IntHandlerSSI1      0x00004843    0xa  Code  Gb  bsp_int.o [1]
BSP_IntHandlerSYSCTL    0x00004807    0xa  Code  Gb  bsp_int.o [1]
BSP_IntHandlerTIMER0A   0x000047ad    0xa  Code  Gb  bsp_int.o [1]
BSP_IntHandlerTIMER0B   0x000047b7    0xa  Code  Gb  bsp_int.o [1]
BSP_IntHandlerTIMER1A   0x000047c1    0xa  Code  Gb  bsp_int.o [1]
BSP_IntHandlerTIMER1B   0x000047cb    0xa  Code  Gb  bsp_int.o [1]
BSP_IntHandlerTIMER2A   0x000047d5    0xa  Code  Gb  bsp_int.o [1]
BSP_IntHandlerTIMER2B   0x000047df    0xa  Code  Gb  bsp_int.o [1]
BSP_IntHandlerTIMER3A   0x0000484d    0xa  Code  Gb  bsp_int.o [1]
BSP_IntHandlerTIMER3B   0x00004857    0xa  Code  Gb  bsp_int.o [1]
BSP_IntHandlerUART0     0x00004753    0xa  Code  Gb  bsp_int.o [1]
BSP_IntHandlerUART1     0x0000475d    0xa  Code  Gb  bsp_int.o [1]
BSP_IntHandlerUART2     0x00004839    0xa  Code  Gb  bsp_int.o [1]
BSP_IntHandlerUDMA_ERR  0x000048a7    0xa  Code  Gb  bsp_int.o [1]
BSP_IntHandlerUDMA_SW   0x0000489d    0xa  Code  Gb  bsp_int.o [1]
BSP_IntHandlerUSB       0x00004893    0xa  Code  Gb  bsp_int.o [1]
BSP_IntHandlerWATCHDOG  0x000047a3    0xa  Code  Gb  bsp_int.o [1]
BSP_IntInit             0x00004709   0x18  Code  Gb  bsp_int.o [1]
BSP_IntVectSet          0x000046e1   0x28  Code  Gb  bsp_int.o [1]
BSP_IntVectTbl          0x20003044  0x118  Data  Lc  bsp_int.o [1]
BSP_LED_Off             0x00004cb5   0x36  Code  Gb  bsp_io.o [1]
BSP_LED_On              0x00004c7f   0x36  Code  Gb  bsp_io.o [1]
BSP_LEDsInit            0x00004c6d   0x12  Code  Gb  bsp_io.o [1]
BSP_MotorDir            0x00004f25   0x44  Code  Gb  bsp_motor.o [1]
BSP_MotorRun            0x00004f69   0x1c  Code  Gb  bsp_motor.o [1]
BSP_MotorSpeed          0x00004fb5   0x76  Code  Gb  bsp_motor.o [1]
BSP_MotorStop           0x00004f85   0x30  Code  Gb  bsp_motor.o [1]
BSP_MotorsInit          0x00004e49   0xdc  Code  Gb  bsp_motor.o [1]
BSP_PushButtonsInit     0x00004c55   0x18  Code  Gb  bsp_io.o [1]
BSP_WheelSensorEnable   0x00004daf    0xe  Code  Gb  bsp_sensors.o [1]
BSP_WheelSensorIntEnable
                        0x00004dbd   0x7e  Code  Gb  bsp_sensors.o [1]
BSP_WheelSensorsInit    0x00004d0d   0xa2  Code  Gb  bsp_sensors.o [1]
Blocked_Count           0x20004094    0x4  Data  Gb  os_RecTask.o [1]
Blocklist_Array         0x20002b94  0x190  Data  Gb  os_RecTask.o [1]
CPU_CntLeadZeros        0x0000226b         Code  Gb  cpu_a.o [1]
CPU_Init                0x00002281   0x10  Code  Gb  cpu_core.o [1]
CPU_IntDis              0x00002255         Code  Gb  cpu_a.o [1]
CPU_IntDisMeasCtr       0x20004100    0x2  Data  Gb  cpu_core.o [1]
CPU_IntDisMeasInit      0x00002373   0x74  Code  Lc  cpu_core.o [1]
CPU_IntDisMeasMaxCalc   0x000023e7   0x14  Code  Lc  cpu_core.o [1]
CPU_IntDisMeasMaxCurGet
                        0x000022d9   0x1c  Code  Gb  cpu_core.o [1]
CPU_IntDisMeasMaxCurReset
                        0x000022b9   0x20  Code  Gb  cpu_core.o [1]
CPU_IntDisMeasMaxCur_cnts
                        0x20004070    0x4  Data  Gb  cpu_core.o [1]
CPU_IntDisMeasMax_cnts  0x20004074    0x4  Data  Gb  cpu_core.o [1]
CPU_IntDisMeasOvrhd_cnts
                        0x2000406c    0x4  Data  Gb  cpu_core.o [1]
CPU_IntDisMeasStart     0x000022f5   0x28  Code  Gb  cpu_core.o [1]
CPU_IntDisMeasStart_cnts
                        0x20004064    0x4  Data  Gb  cpu_core.o [1]
CPU_IntDisMeasStop      0x0000231d   0x40  Code  Gb  cpu_core.o [1]
CPU_IntDisMeasStop_cnts
                        0x20004068    0x4  Data  Gb  cpu_core.o [1]
CPU_IntDisNestCtr       0x20004102    0x2  Data  Gb  cpu_core.o [1]
CPU_IntEn               0x00002259         Code  Gb  cpu_a.o [1]
CPU_IntSrcEn            0x00005041  0x12c  Code  Gb  cpu_c.o [1]
CPU_Name                0x20003fd4   0x10  Data  Gb  cpu_core.o [1]
CPU_NameClr             0x00002291   0x22  Code  Gb  cpu_core.o [1]
CPU_NameInit            0x0000235d    0x8  Code  Lc  cpu_core.o [1]
CPU_RevBits             0x00002271         Code  Gb  cpu_a.o [1]
CPU_SR_Restore          0x00002265         Code  Gb  cpu_a.o [1]
CPU_SR_Save             0x0000225d         Code  Gb  cpu_a.o [1]
CPU_TS_Init             0x00002365    0xe  Code  Lc  cpu_core.o [1]
CPU_TS_TmrFreqSet       0x000022b3    0x6  Code  Gb  cpu_core.o [1]
CPU_TS_TmrFreq_Hz       0x20004060    0x4  Data  Gb  cpu_core.o [1]
CPU_TS_TmrInit          0x00002421   0x18  Code  Gb  cpu_bsp.o [1]
CPU_TS_TmrRd            0x00002439    0x6  Code  Gb  cpu_bsp.o [1]
CPU_WaitForExcept       0x0000227b         Code  Gb  cpu_a.o [1]
CPU_WaitForInt          0x00002277         Code  Gb  cpu_a.o [1]
CSTACK$$Base            0x20004118          --   Gb  - Linker created -
CSTACK$$Limit           0x20004518          --   Gb  - Linker created -
DummyQ                  0x20003e10   0x30  Data  Gb  app.o [1]
EDFSchedInit            0x000008b5   0x1e  Code  Gb  os_RecTask.o [1]
EDFSchedulerPartition   0x20003ed4   0x20  Data  Gb  os_RecTask.o [1]
EDFSchedulerStorage     0x2000315c  0x118  Data  Gb  os_RecTask.o [1]
EDF_Scheduler_Ptr       0x20004084    0x4  Data  Gb  os_RecTask.o [1]
Earliest_Deadline_Task  0x20004088    0x4  Data  Gb  os_RecTask.o [1]
EthernetPHYRead         0x00007d25   0x20  Code  Gb  ethernet.o [1]
EthernetPHYWrite        0x00007d05   0x20  Code  Gb  ethernet.o [1]
GPIODirModeSet          0x00005229   0x46  Code  Gb  gpio.o [1]
GPIOIntTypeSet          0x0000526f   0x5a  Code  Gb  gpio.o [1]
GPIOPadConfigSet        0x000052c9  0x10e  Code  Gb  gpio.o [1]
GPIOPinConfigure        0x000054a9   0x46  Code  Gb  gpio.o [1]
GPIOPinIntClear         0x0000540f    0x8  Code  Gb  gpio.o [1]
GPIOPinIntDisable       0x000053e9   0x12  Code  Gb  gpio.o [1]
GPIOPinIntEnable        0x000053d7   0x12  Code  Gb  gpio.o [1]
GPIOPinIntStatus        0x000053fb   0x14  Code  Gb  gpio.o [1]
GPIOPinTypeGPIOInput    0x00005421   0x22  Code  Gb  gpio.o [1]
GPIOPinTypeGPIOOutput   0x00005443   0x22  Code  Gb  gpio.o [1]
GPIOPinTypeI2C          0x00005465   0x22  Code  Gb  gpio.o [1]
GPIOPinTypePWM          0x00005487   0x22  Code  Gb  gpio.o [1]
GPIOPinWrite            0x00005417    0xa  Code  Gb  gpio.o [1]
HEAP$$Base              0x20004118          --   Gb  - Linker created -
HEAP$$Limit             0x20004118          --   Gb  - Linker created -
I2CMasterControl        0x00005201    0x4  Code  Gb  i2c.o [1]
I2CMasterDataPut        0x00005223    0x6  Code  Gb  i2c.o [1]
I2CMasterEnable         0x000051bb    0xa  Code  Gb  i2c.o [1]
I2CMasterErr            0x00005205   0x1e  Code  Gb  i2c.o [1]
I2CMasterInitExpClk     0x0000517d   0x3e  Code  Gb  i2c.o [1]
I2CMasterIntStatus      0x000051c5   0x26  Code  Gb  i2c.o [1]
I2CMasterSlaveAddrSet   0x000051f5    0xc  Code  Gb  i2c.o [1]
InStream_Read           0x000082f9   0x22  Code  Lc  packbits_init.o [5]
IntWheelSensor          0x00007a2d   0xd2  Code  Gb  app.o [1]
Left_tgt                0x2000410e    0x1  Data  Gb  app.o [1]
Mem_Clr                 0x000035e1    0xc  Code  Gb  lib_mem.o [1]
Mem_Set                 0x000035ed   0x5a  Code  Gb  lib_mem.o [1]
MutexOne                0x20003e68   0x24  Data  Gb  app.o [1]
MutexThree              0x20003eb0   0x24  Data  Gb  app.o [1]
MutexTwo                0x20003e8c   0x24  Data  Gb  app.o [1]
OSCfg_DataSizeRAM       0x00008bf8    0x4  Data  Gb  os_cfg_app.o [1]
OSCfg_ISRStk            0x20001714  0x200  Data  Gb  os_cfg_app.o [1]
OSCfg_ISRStkBasePtr     0x00008bb0    0x4  Data  Gb  os_cfg_app.o [1]
OSCfg_ISRStkSize        0x00008bb4    0x4  Data  Gb  os_cfg_app.o [1]
OSCfg_ISRStkSizeRAM     0x00008bb8    0x4  Data  Gb  os_cfg_app.o [1]
OSCfg_IdleTaskStk       0x20001514  0x200  Data  Gb  os_cfg_app.o [1]
OSCfg_IdleTaskStkBasePtr
                        0x00008ba0    0x4  Data  Gb  os_cfg_app.o [1]
OSCfg_IdleTaskStkLimit  0x00008ba4    0x4  Data  Gb  os_cfg_app.o [1]
OSCfg_IdleTaskStkSize   0x00008ba8    0x4  Data  Gb  os_cfg_app.o [1]
OSCfg_IdleTaskStkSizeRAM
                        0x00008bac    0x4  Data  Gb  os_cfg_app.o [1]
OSCfg_Init              0x000040d1   0xe0  Code  Gb  os_cfg_app.o [1]
OSCfg_MsgPool           0x2000027c  0x640  Data  Gb  os_cfg_app.o [1]
OSCfg_MsgPoolBasePtr    0x00008bc0    0x4  Data  Gb  os_cfg_app.o [1]
OSCfg_MsgPoolSize       0x0000227e    0x2  Data  Gb  os_cfg_app.o [1]
OSCfg_MsgPoolSizeRAM    0x00008bbc    0x4  Data  Gb  os_cfg_app.o [1]
OSCfg_StkSizeMin        0x00008bc4    0x4  Data  Gb  os_cfg_app.o [1]
OSCfg_TickRate_Hz       0x00008bc8    0x4  Data  Gb  os_cfg_app.o [1]
OSCfg_TickTaskPrio      0x00008c0c    0x1  Data  Gb  os_cfg_app.o [1]
OSCfg_TickTaskStk       0x20001914  0x200  Data  Gb  os_cfg_app.o [1]
OSCfg_TickTaskStkBasePtr
                        0x00008bcc    0x4  Data  Gb  os_cfg_app.o [1]
OSCfg_TickTaskStkLimit  0x00008bd0    0x4  Data  Gb  os_cfg_app.o [1]
OSCfg_TickTaskStkSize   0x00008bd4    0x4  Data  Gb  os_cfg_app.o [1]
OSCfg_TickTaskStkSizeRAM
                        0x00008bd8    0x4  Data  Gb  os_cfg_app.o [1]
OSCfg_TickWheel         0x20003b40   0x68  Data  Gb  os_cfg_app.o [1]
OSCfg_TickWheelSize     0x00003556    0x2  Data  Gb  os_cfg_app.o [1]
OSCfg_TickWheelSizeRAM  0x00008bdc    0x4  Data  Gb  os_cfg_app.o [1]
OSCfg_TmrTaskPrio       0x00008c0d    0x1  Data  Gb  os_cfg_app.o [1]
OSCfg_TmrTaskRate_Hz    0x00008be0    0x4  Data  Gb  os_cfg_app.o [1]
OSCfg_TmrTaskStk        0x20001b14  0x200  Data  Gb  os_cfg_app.o [1]
OSCfg_TmrTaskStkBasePtr
                        0x00008be4    0x4  Data  Gb  os_cfg_app.o [1]
OSCfg_TmrTaskStkLimit   0x00008be8    0x4  Data  Gb  os_cfg_app.o [1]
OSCfg_TmrTaskStkSize    0x00008bec    0x4  Data  Gb  os_cfg_app.o [1]
OSCfg_TmrTaskStkSizeRAM
                        0x00008bf0    0x4  Data  Gb  os_cfg_app.o [1]
OSCfg_TmrWheel          0x20003ba8   0x68  Data  Gb  os_cfg_app.o [1]
OSCfg_TmrWheelSize      0x00003646    0x2  Data  Gb  os_cfg_app.o [1]
OSCfg_TmrWheelSizeRAM   0x00008bf4    0x4  Data  Gb  os_cfg_app.o [1]
OSDbg_AppHooksEn        0x00008c0f    0x1  Data  Gb  os_dbg.o [1]
OSDbg_ArgChkEn          0x00008c0e    0x1  Data  Gb  os_dbg.o [1]
OSDbg_CalledFromISRChkEn
                        0x00008c10    0x1  Data  Gb  os_dbg.o [1]
OSDbg_DataSize          0x00008c04    0x4  Data  Gb  os_dbg.o [1]
OSDbg_DbgEn             0x00004236    0x2  Data  Gb  os_dbg.o [1]
OSDbg_EndiannessTest    0x00008bfc    0x4  Data  Gb  os_dbg.o [1]
OSDbg_FlagDelEn         0x00008c12    0x1  Data  Gb  os_dbg.o [1]
OSDbg_FlagEn            0x00008c11    0x1  Data  Gb  os_dbg.o [1]
OSDbg_FlagGrp           0x00008824   0x28  Data  Gb  os_dbg.o [1]
OSDbg_FlagGrpSize       0x0000491e    0x2  Data  Gb  os_dbg.o [1]
OSDbg_FlagModeClrEn     0x00008c13    0x1  Data  Gb  os_dbg.o [1]
OSDbg_FlagPendAbortEn   0x00008c14    0x1  Data  Gb  os_dbg.o [1]
OSDbg_FlagWidth         0x0000671e    0x2  Data  Gb  os_dbg.o [1]
OSDbg_ISRPostDeferredEn
                        0x00008c15    0x1  Data  Gb  os_dbg.o [1]
OSDbg_Mem               0x000088ec   0x20  Data  Gb  os_dbg.o [1]
OSDbg_MemEn             0x00008c16    0x1  Data  Gb  os_dbg.o [1]
OSDbg_MemSize           0x00006736    0x2  Data  Gb  os_dbg.o [1]
OSDbg_MsgEn             0x00008c17    0x1  Data  Gb  os_dbg.o [1]
OSDbg_MsgPoolSize       0x000067d2    0x2  Data  Gb  os_dbg.o [1]
OSDbg_MsgQSize          0x0000689e    0x2  Data  Gb  os_dbg.o [1]
OSDbg_MsgSize           0x0000676e    0x2  Data  Gb  os_dbg.o [1]
OSDbg_Mutex             0x0000889c   0x24  Data  Gb  os_dbg.o [1]
OSDbg_MutexDelEn        0x00008c19    0x1  Data  Gb  os_dbg.o [1]
OSDbg_MutexEn           0x00008c18    0x1  Data  Gb  os_dbg.o [1]
OSDbg_MutexPendAbortEn  0x00008c1a    0x1  Data  Gb  os_dbg.o [1]
OSDbg_MutexSize         0x00006a0e    0x2  Data  Gb  os_dbg.o [1]
OSDbg_ObjTypeChkEn      0x00008c1b    0x1  Data  Gb  os_dbg.o [1]
OSDbg_PendDataSize      0x00006c22    0x2  Data  Gb  os_dbg.o [1]
OSDbg_PendListSize      0x00006c52    0x2  Data  Gb  os_dbg.o [1]
OSDbg_PendMultiEn       0x00008c1c    0x1  Data  Gb  os_dbg.o [1]
OSDbg_PendObjSize       0x000071ae    0x2  Data  Gb  os_dbg.o [1]
OSDbg_PrioMax           0x0000722a    0x2  Data  Gb  os_dbg.o [1]
OSDbg_PrioTblSize       0x000072ce    0x2  Data  Gb  os_dbg.o [1]
OSDbg_PtrSize           0x000080fa    0x2  Data  Gb  os_dbg.o [1]
OSDbg_Q                 0x000087f4   0x30  Data  Gb  os_dbg.o [1]
OSDbg_QDelEn            0x00008c1e    0x1  Data  Gb  os_dbg.o [1]
OSDbg_QEn               0x00008c1d    0x1  Data  Gb  os_dbg.o [1]
OSDbg_QFlushEn          0x00008c1f    0x1  Data  Gb  os_dbg.o [1]
OSDbg_QPendAbortEn      0x00008c20    0x1  Data  Gb  os_dbg.o [1]
OSDbg_QSize             0x000083d2    0x2  Data  Gb  os_dbg.o [1]
OSDbg_RdyList           0x000085e6    0x2  Data  Gb  os_dbg.o [1]
OSDbg_RdyListSize       0x00008c00    0x4  Data  Gb  os_dbg.o [1]
OSDbg_SchedRoundRobinEn
                        0x00008c21    0x1  Data  Gb  os_dbg.o [1]
OSDbg_Sem               0x0000884c   0x28  Data  Gb  os_dbg.o [1]
OSDbg_SemEn             0x00008c22    0x1  Data  Gb  os_dbg.o [1]
OSDbg_StatTaskEn        0x00008c24    0x1  Data  Gb  os_dbg.o [1]
OSDbg_StatTaskStkChkEn  0x00008c25    0x1  Data  Gb  os_dbg.o [1]
OSDbg_StkWidth          0x00008c23    0x1  Data  Gb  os_dbg.o [1]
OSDbg_TCBSize           0x000089e2    0x2  Data  Gb  os_dbg.o [1]
OSDbg_TaskChangePrioEn  0x00008c26    0x1  Data  Gb  os_dbg.o [1]
OSDbg_TaskDelEn         0x00008c27    0x1  Data  Gb  os_dbg.o [1]
OSDbg_TaskProfileEn     0x00008c2a    0x1  Data  Gb  os_dbg.o [1]
OSDbg_TaskQEn           0x00008c28    0x1  Data  Gb  os_dbg.o [1]
OSDbg_TaskQPendAbortEn  0x00008c29    0x1  Data  Gb  os_dbg.o [1]
OSDbg_TaskRegTblSize    0x000086f2    0x2  Data  Gb  os_dbg.o [1]
OSDbg_TaskSemPendAbortEn
                        0x00008c2b    0x1  Data  Gb  os_dbg.o [1]
OSDbg_TaskSuspendEn     0x00008c2c    0x1  Data  Gb  os_dbg.o [1]
OSDbg_TickSpokeSize     0x000089f2    0x2  Data  Gb  os_dbg.o [1]
OSDbg_TimeDlyHMSMEn     0x00008c2d    0x1  Data  Gb  os_dbg.o [1]
OSDbg_TimeDlyResumeEn   0x00008c2e    0x1  Data  Gb  os_dbg.o [1]
OSDbg_Tmr               0x000087c0   0x34  Data  Gb  os_dbg.o [1]
OSDbg_TmrDelEn          0x00008c30    0x1  Data  Gb  os_dbg.o [1]
OSDbg_TmrEn             0x00008c2f    0x1  Data  Gb  os_dbg.o [1]
OSDbg_TmrSize           0x00008a82    0x2  Data  Gb  os_dbg.o [1]
OSDbg_TmrSpokeSize      0x00008c08    0x2  Data  Gb  os_dbg.o [1]
OSDbg_VersionNbr        0x00008c0a    0x2  Data  Gb  os_dbg.o [1]
OSDeleteEDFNode         0x00000ac1   0xfa  Code  Gb  os_RecTask.o [1]
OSEarliestDeadlineNode  0x000009c9    0xc  Code  Gb  os_RecTask.o [1]
OSFlagCreate            0x000014a1   0x68  Code  Gb  os_flag.o [1]
OSFlagDbgListPtr        0x200040b4    0x4  Data  Gb  os_var.o [1]
OSFlagPend              0x00001509  0x2b0  Code  Gb  os_flag.o [1]
OSFlagPost              0x000017b9   0x20  Code  Gb  os_flag.o [1]
OSFlagQty               0x20004104    0x2  Data  Gb  os_var.o [1]
OSIdleTaskCtr           0x200040b0    0x4  Data  Gb  os_var.o [1]
OSIdleTaskHook          0x00001fb9    0x2  Code  Gb  os_cpu_c.o [1]
OSIdleTaskTCB           0x200038ec   0x9c  Data  Gb  os_var.o [1]
OSInit                  0x00002449   0xde  Code  Gb  os_core.o [1]
OSInitHook              0x00001fbb   0x14  Code  Gb  os_cpu_c.o [1]
OSInsertEDFNode         0x000009d5   0xec  Code  Gb  os_RecTask.o [1]
OSIntEnter              0x00002527   0x24  Code  Gb  os_core.o [1]
OSIntExit               0x0000254b   0xb2  Code  Gb  os_core.o [1]
OSIntNestingCtr         0x20004113    0x1  Data  Gb  os_var.o [1]
OSMemCreate             0x00001339   0x8c  Code  Gb  os_mem.o [1]
OSMemDbgListPtr         0x200040b8    0x4  Data  Gb  os_var.o [1]
OSMemGet                0x000013c5   0x4a  Code  Gb  os_mem.o [1]
OSMemPut                0x0000140f   0x4a  Code  Gb  os_mem.o [1]
OSMemQty                0x20004106    0x2  Data  Gb  os_var.o [1]
OSMsgPool               0x20003ff8    0x8  Data  Gb  os_var.o [1]
OSMutexCreate           0x000036f1   0x64  Code  Gb  os_mutex.o [1]
OSMutexDbgListPtr       0x200040bc    0x4  Data  Gb  os_var.o [1]
OSMutexPend             0x00003755   0xa2  Code  Gb  os_mutex.o [1]
OSMutexPost             0x000037f7  0x136  Code  Gb  os_mutex.o [1]
OSMutexQty              0x20004108    0x2  Data  Gb  os_var.o [1]
OSNewEDFNode            0x000008e7   0x44  Code  Gb  os_RecTask.o [1]
OSPrioCur               0x20004115    0x1  Data  Gb  os_var.o [1]
OSPrioHighRdy           0x20004116    0x1  Data  Gb  os_var.o [1]
OSPrioTbl               0x2000407c    0x4  Data  Gb  os_prio.o [1]
OSQCreate               0x00003995   0x64  Code  Gb  os_q.o [1]
OSQDbgListPtr           0x200040c0    0x4  Data  Gb  os_var.o [1]
OSQPend                 0x000039f9  0x18c  Code  Gb  os_q.o [1]
OSQQty                  0x2000410a    0x2  Data  Gb  os_var.o [1]
OSRdyList               0x20003454   0xf0  Data  Gb  os_var.o [1]
OSRecTaskCreate         0x0000027f  0x19c  Code  Gb  os_RecTask.o [1]
OSRecTaskDel            0x0000041b   0xfe  Code  Gb  os_RecTask.o [1]
OSRecTaskInit           0x000001df   0xa0  Code  Gb  os_RecTask.o [1]
OSRecTaskListInit       0x0000011d   0x3c  Code  Gb  os_RecTask.o [1]
OSRecTaskMgr            0x00000519  0x124  Code  Gb  os_RecTask.o [1]
OSRecTaskMgrStk         0x20001d14  0x200  Data  Lc  os_RecTask.o [1]
OSRecTaskMgrTCB         0x20003850   0x9c  Data  Lc  os_RecTask.o [1]
OSRecTaskSvcInit        0x00000159   0x86  Code  Gb  os_RecTask.o [1]
OSRunning               0x20004114    0x1  Data  Gb  os_var.o [1]
OSSRPInit               0x00000cb1   0x30  Code  Gb  os_RecTask.o [1]
OSSRPStackPeep          0x00000d35    0xa  Code  Gb  os_RecTask.o [1]
OSSRPStackPop           0x00000d03   0x2e  Code  Gb  os_RecTask.o [1]
OSSRPStackPush          0x00000ce1   0x22  Code  Gb  os_RecTask.o [1]
OSSched                 0x000025fd  0x168  Code  Gb  os_core.o [1]
OSSchedLock             0x00002765   0x68  Code  Gb  os_core.o [1]
OSSchedLockNestingCtr   0x20004117    0x1  Data  Gb  os_var.o [1]
OSSchedLockTimeBegin    0x200040c4    0x4  Data  Gb  os_var.o [1]
OSSchedLockTimeMax      0x200040c8    0x4  Data  Gb  os_var.o [1]
OSSchedLockTimeMaxCur   0x200040cc    0x4  Data  Gb  os_var.o [1]
OSSchedUnlock           0x000027cd   0x88  Code  Gb  os_core.o [1]
OSStart                 0x00002855   0x64  Code  Gb  os_core.o [1]
OSStartHighRdy          0x000041b1         Code  Gb  os_cpu_a.o [1]
OSTCBCurPtr             0x200040f4    0x4  Data  Gb  os_var.o [1]
OSTCBHighRdyPtr         0x200040f8    0x4  Data  Gb  os_var.o [1]
OSTaskCreate            0x000019e1  0x118  Code  Gb  os_task.o [1]
OSTaskCreateHook        0x00001fcf    0x2  Code  Gb  os_cpu_c.o [1]
OSTaskCtxSwCtr          0x200040d0    0x4  Data  Gb  os_var.o [1]
OSTaskDbgListPtr        0x200040d4    0x4  Data  Gb  os_var.o [1]
OSTaskDel               0x00001af9  0x104  Code  Gb  os_task.o [1]
OSTaskDelHook           0x00001fd1    0x2  Code  Gb  os_cpu_c.o [1]
OSTaskQty               0x2000410c    0x2  Data  Gb  os_var.o [1]
OSTaskReturnHook        0x00001fd3    0x2  Code  Gb  os_cpu_c.o [1]
OSTaskSemPend           0x00001bfd  0x146  Code  Gb  os_task.o [1]
OSTaskSemPost           0x00001d43   0x1c  Code  Gb  os_task.o [1]
OSTaskStkInit           0x00001fd5   0x80  Code  Gb  os_cpu_c.o [1]
OSTaskSwHook            0x00002055   0x3e  Code  Gb  os_cpu_c.o [1]
OSTickCtr               0x200040d8    0x4  Data  Gb  os_var.o [1]
OSTickTaskTCB           0x20003988   0x9c  Data  Gb  os_var.o [1]
OSTickTaskTimeMax       0x200040dc    0x4  Data  Gb  os_var.o [1]
OSTimeDly               0x000032bd   0xa6  Code  Gb  os_time.o [1]
OSTimeSet               0x00003363   0x26  Code  Gb  os_time.o [1]
OSTimeTick              0x00003389   0x36  Code  Gb  os_time.o [1]
OSTimeTickHook          0x00002093    0x2  Code  Gb  os_cpu_c.o [1]
OSTmrDbgListPtr         0x200040e0    0x4  Data  Gb  os_var.o [1]
OSTmrTaskTCB            0x20003a24   0x9c  Data  Gb  os_var.o [1]
OSTmrTaskTimeMax        0x200040e4    0x4  Data  Gb  os_var.o [1]
OSTmrTickCtr            0x200040e8    0x4  Data  Gb  os_var.o [1]
OSTmrUpdateCnt          0x200040ec    0x4  Data  Gb  os_var.o [1]
OSTmrUpdateCtr          0x200040f0    0x4  Data  Gb  os_var.o [1]
OS_CPU_ExceptStkBase    0x20004078    0x4  Data  Gb  os_cpu_c.o [1]
OS_CPU_PendSVHandler    0x000041cf         Code  Gb  os_cpu_a.o [1]
OS_CPU_SysTickHandler   0x00002095   0x2c  Code  Gb  os_cpu_c.o [1]
OS_CPU_SysTickInit      0x000020c1   0x2c  Code  Gb  os_cpu_c.o [1]
OS_Dbg_Init             0x00003ec1  0x210  Code  Gb  os_dbg.o [1]
OS_EDFRdyListRemove     0x00000bdd   0xa4  Code  Gb  os_RecTask.o [1]
OS_FlagBlock            0x000017d9   0x22  Code  Gb  os_flag.o [1]
OS_FlagDbgListAdd       0x0000180d   0x28  Code  Gb  os_flag.o [1]
OS_FlagInit             0x000017fb   0x12  Code  Gb  os_flag.o [1]
OS_FlagPost             0x00001851  0x11a  Code  Gb  os_flag.o [1]
OS_FlagTaskRdy          0x0000196b   0x54  Code  Gb  os_flag.o [1]
OS_IdleTask             0x000028b9   0x2c  Code  Gb  os_core.o [1]
OS_IdleTaskInit         0x000028e5   0x50  Code  Gb  os_core.o [1]
OS_MemDbgListAdd        0x00001459   0x24  Code  Gb  os_mem.o [1]
OS_MemInit              0x0000147d   0x12  Code  Gb  os_mem.o [1]
OS_MsgPoolCreate        0x00002119   0x3c  Code  Gb  os_msg.o [1]
OS_MsgPoolInit          0x00002155   0x2c  Code  Gb  os_msg.o [1]
OS_MsgQFreeAll          0x00002181   0x44  Code  Gb  os_msg.o [1]
OS_MsgQGet              0x000021d9   0x70  Code  Gb  os_msg.o [1]
OS_MsgQInit             0x000021c5   0x14  Code  Gb  os_msg.o [1]
OS_MutexDbgListAdd      0x0000392d   0x28  Code  Gb  os_mutex.o [1]
OS_MutexInit            0x00003955   0x12  Code  Gb  os_mutex.o [1]
OS_Pend                 0x00002935   0x6c  Code  Gb  os_core.o [1]
OS_PendDataInit         0x000029a1   0x34  Code  Gb  os_core.o [1]
OS_PendDbgNameAdd       0x000029d5   0x42  Code  Gb  os_core.o [1]
OS_PendDbgNameRemove    0x00002a17   0x1e  Code  Gb  os_core.o [1]
OS_PendListInit         0x00002a35    0xe  Code  Gb  os_core.o [1]
OS_PendListInsertPrio   0x00002a43   0x6e  Code  Gb  os_core.o [1]
OS_PendListRemove       0x00002ab1   0x28  Code  Gb  os_core.o [1]
OS_PendListRemove1      0x00002ad9   0x48  Code  Gb  os_core.o [1]
OS_Post                 0x00002b21   0xc0  Code  Gb  os_core.o [1]
OS_Post1                0x00002be1   0x26  Code  Gb  os_core.o [1]
OS_PrioGetHighest       0x0000356d   0x20  Code  Gb  os_prio.o [1]
OS_PrioInit             0x00003559   0x14  Code  Gb  os_prio.o [1]
OS_PrioInsert           0x0000358d   0x26  Code  Gb  os_prio.o [1]
OS_PrioRemove           0x000035b3   0x28  Code  Gb  os_prio.o [1]
OS_QDbgListAdd          0x00003b85   0x28  Code  Gb  os_q.o [1]
OS_QInit                0x00003bad   0x12  Code  Gb  os_q.o [1]
OS_RdyListInit          0x00002c07   0x24  Code  Gb  os_core.o [1]
OS_RdyListInsert        0x00002c31   0x28  Code  Gb  os_core.o [1]
OS_RdyListInsertHead    0x00002c59   0x3a  Code  Gb  os_core.o [1]
OS_RdyListInsertTail    0x00002c93   0x38  Code  Gb  os_core.o [1]
OS_RdyListRemove        0x00002ccb   0x5c  Code  Gb  os_core.o [1]
OS_SchedLockTimeMeasStart
                        0x00002d27   0x14  Code  Gb  os_core.o [1]
OS_SchedLockTimeMeasStop
                        0x00002d3b   0x2e  Code  Gb  os_core.o [1]
OS_TaskBlock            0x00002d85   0x4a  Code  Gb  os_core.o [1]
OS_TaskDbgListAdd       0x00001d5f   0x2c  Code  Gb  os_task.o [1]
OS_TaskDbgListRemove    0x00001d8b   0x4a  Code  Gb  os_task.o [1]
OS_TaskInit             0x00001dd5   0x18  Code  Gb  os_task.o [1]
OS_TaskInitTCB          0x00001ded   0xba  Code  Gb  os_task.o [1]
OS_TaskRdy              0x00002dcf   0x84  Code  Gb  os_core.o [1]
OS_TaskReturn           0x00001ea7   0x14  Code  Gb  os_task.o [1]
OS_TaskSemPost          0x00001ebb   0xd4  Code  Gb  os_task.o [1]
OS_TickListInit         0x00002f65   0x2a  Code  Gb  os_tick.o [1]
OS_TickListInsert       0x00002f8f  0x11c  Code  Gb  os_tick.o [1]
OS_TickListRemove       0x000030ab   0x42  Code  Gb  os_tick.o [1]
OS_TickListUpdate       0x000030ed  0x198  Code  Gb  os_tick.o [1]
OS_TickTask             0x00002ec9   0x28  Code  Gb  os_tick.o [1]
OS_TickTaskInit         0x00002ef1   0x74  Code  Gb  os_tick.o [1]
OS_TmrInit              0x00003bdd   0xda  Code  Gb  os_tmr.o [1]
OS_TmrLink              0x00003cb7   0xd0  Code  Gb  os_tmr.o [1]
OS_TmrTask              0x00003dd5   0xaa  Code  Gb  os_tmr.o [1]
OS_TmrUnlink            0x00003d87   0x4c  Code  Gb  os_tmr.o [1]
OS_insertBlockedTask    0x00000df5   0x34  Code  Gb  os_RecTask.o [1]
PWMGenConfigure         0x000054f9   0x28  Code  Gb  pwm.o [1]
PWMGenEnable            0x00005535    0xa  Code  Gb  pwm.o [1]
PWMGenPeriodSet         0x00005521   0x14  Code  Gb  pwm.o [1]
PWMOutputInvert         0x0000557b   0x16  Code  Gb  pwm.o [1]
PWMOutputState          0x00005565   0x16  Code  Gb  pwm.o [1]
PWMPulseWidthSet        0x0000553f   0x26  Code  Gb  pwm.o [1]
RBT_Header              0x20004090    0x4  Data  Gb  os_RecTask.o [1]
RBT_deleteMaxNode       0x00001105  0x1b4  Code  Gb  os_RecTask.o [1]
RBT_init                0x00000d49   0x76  Code  Gb  os_RecTask.o [1]
RBT_insertNode          0x00000e45  0x2b2  Code  Gb  os_RecTask.o [1]
RBT_newNode             0x00000dc5   0x28  Code  Gb  os_RecTask.o [1]
RecSkipListStorage      0x20003fe4    0xc  Data  Gb  os_RecTask.o [1]
RecSkiplistPartition    0x20003f14   0x20  Data  Gb  os_RecTask.o [1]
RecTaskList             0x20004080    0x4  Data  Gb  os_RecTask.o [1]
RecursiveNodePartition  0x20003f34   0x20  Data  Gb  os_RecTask.o [1]
RecursiveNodeStorage    0x200008bc  0x258  Data  Gb  os_RecTask.o [1]
RedBlackTreeNodePartition
                        0x20003f94   0x20  Data  Gb  os_RecTask.o [1]
RedBlackTreeNodeStorage
                        0x20003274   0xf0  Data  Gb  os_RecTask.o [1]
RedBlackTreePartition   0x20003f74   0x20  Data  Gb  os_RecTask.o [1]
RedBlackTreeStorage     0x20003ff0    0x8  Data  Gb  os_RecTask.o [1]
RedBlackTreeTaskPartition
                        0x20003fb4   0x20  Data  Gb  os_RecTask.o [1]
RedBlackTreeTaskStorage
                        0x20003364   0xf0  Data  Gb  os_RecTask.o [1]
Region$$Table$$Base     0x000088c0          --   Gb  - Linker created -
Region$$Table$$Limit    0x000088ec          --   Gb  - Linker created -
Right_tgt               0x2000410f    0x1  Data  Gb  app.o [1]
RoboTurn                0x00007b21   0xc6  Code  Gb  app.o [1]
SRPStack                0x2000408c    0x4  Data  Gb  os_RecTask.o [1]
SRPStackPartition       0x20003f54   0x20  Data  Gb  os_RecTask.o [1]
SRPStackStorage         0x20003c60   0x50  Data  Gb  os_RecTask.o [1]
SRPSysCeiling           0x200040ac    0x4  Data  Gb  os_RecTask.o [1]
Scheduling_Array        0x20002eb4  0x190  Data  Gb  os_RecTask.o [1]
Scheduling_Count        0x2000409c    0x4  Data  Gb  os_RecTask.o [1]
Scheduling_Record_Bit   0x200040a0    0x4  Data  Gb  os_RecTask.o [1]
Scheduling_Time1        0x200040a4    0x4  Data  Gb  os_RecTask.o [1]
Scheduling_Time2        0x200040a8    0x4  Data  Gb  os_RecTask.o [1]
SysCtlClockGet          0x0000444f  0x200  Code  Gb  sysctl.o [1]
SysCtlClockSet          0x000042ed  0x162  Code  Gb  sysctl.o [1]
SysCtlDelay             0x000042e5    0x8  Code  Gb  sysctl.o [1]
SysCtlPWMClockSet       0x0000464f   0x10  Code  Gb  sysctl.o [1]
SysCtlPeripheralDeepSleepDisable
                        0x000042bf   0x26  Code  Gb  sysctl.o [1]
SysCtlPeripheralEnable  0x00004299   0x26  Code  Gb  sysctl.o [1]
SysCtlPeripheralReset   0x00004239   0x60  Code  Gb  sysctl.o [1]
TCBLinkedListPartition  0x20003ef4   0x20  Data  Gb  os_RecTask.o [1]
TCBLinkedListStorage    0x20003c10   0x50  Data  Gb  os_RecTask.o [1]
TaskReleaseFlag         0x20003e40   0x28  Data  Gb  os_RecTask.o [1]
Task_One_Execution_Count
                        0x2000404c    0x4  Data  Gb  app.o [1]
Task_Two_Execution_Count
                        0x20004050    0x4  Data  Gb  app.o [1]
Unblock_Count           0x20004098    0x4  Data  Gb  os_RecTask.o [1]
Unblocklist_Array       0x20002d24  0x190  Data  Gb  os_RecTask.o [1]
_Close_all              0x00008645   0x58  Code  Gb  xcloseall.o [3]
_EncodingSb_Mbtowc      0x0000725b   0x30  Code  Gb  xencoding_sb.o [3]
_EncodingSb_Wctomb      0x00007241   0x1a  Code  Gb  xencoding_sb.o [3]
_Files                  0x20000248   0x20  Data  Gb  xfiles.o [3]
_Fofree                 0x000084c1   0x78  Code  Gb  xfofind.o [3]
_Fspos                  0x00008025   0xd6  Code  Gb  xfspos.o [3]
_Fwprep                 0x000083e9   0xb6  Code  Gb  xfwprep.o [3]
_GenldFull              0x0000646d  0x24a  Code  Lc  xprintffull.o [3]
_IsdstStr               0x20000118    0x4  Data  Gb  setlocale.o [3]
_LdtobFull              0x000060e5  0x382  Code  Lc  xprintffull.o [3]
_LitobFull              0x00005f87  0x10c  Code  Lc  xprintffull.o [3]
_LocaleEncoding         0x0000722d    0xe  Code  Gb  setlocale.o [3]
_LocaleReturnString     0x20000138   0x50  Data  Lc  setlocale.o [3]
_Locale_Profile         0x2000011c   0x1c  Data  Gb  setlocale.o [3]
_Locale_aeabi_lconv     0x200000dc   0x38  Data  Gb  localeconv.o [3]
_Locale_lconv           0x2000008c   0x50  Data  Gb  localeconv.o [3]
_Mbtowc                 0x000066ff   0x20  Code  Gb  xmbtowc.o [3]
_Nnl                    0x000081ad    0xc  Code  Gb  xfgpos.o [3]
_PrintfFull             0x00005591  0x67c  Code  Gb  xprintffull.o [3]
_Prout                  0x00008a6d   0x16  Code  Gb  xprout.o [3]
_PutcharsFull           0x000066b7   0x2e  Code  Lc  xprintffull.o [3]
_PutstrFull             0x00005c25  0x35c  Code  Lc  xprintffull.o [3]
_Rand_idx               0x20000008    0x4  Data  Lc  rand.o [3]
_Rand_rv                0x2000000c   0x80  Data  Lc  rand.o [3]
_Randinit               0x20000000    0x1  Data  Gb  rand.o [3]
_Randseed               0x20000004    0x4  Data  Gb  rand.o [3]
_TzoneStr               0x20000114    0x4  Data  Gb  setlocale.o [3]
_Wctomb                 0x00006885   0x1a  Code  Gb  xwctomb.o [3]
__aeabi_cdcmple         0x00006bf5         Code  Gb  DblCmpLe.o [4]
__aeabi_cdrcmple        0x00006c25         Code  Gb  DblCmpGe.o [4]
__aeabi_d2iz            0x00006d61         Code  Gb  DblToI32.o [4]
__aeabi_d2uiz           0x00006d8d         Code  Gb  DblToI32.o [4]
__aeabi_ddiv            0x00006f69         Code  Gb  DblDiv.o [4]
__aeabi_dmul            0x00006a11         Code  Gb  DblMul.o [4]
__aeabi_dsub            0x00006de9         Code  Gb  DblSub.o [4]
__aeabi_errno_addr      0x00008205    0x6  Code  Gb  errno.o [3]
__aeabi_i2d             0x00006db9         Code  Gb  I32ToDbl.o [4]
__aeabi_ldiv0           0x000072cd         Code  Gb  I64DivZer.o [5]
__aeabi_ui2d            0x00006dcd         Code  Gb  I32ToDbl.o [4]
__aeabi_uldivmod        0x00006921         Code  Gb  I64DivMod.o [5]
__cexit_closeall        0x000089e7         Code  Gb  cexit.o [5]
__close                 0x000085b7   0x1a  Code  Gb  close.o [6]
__cmain                 0x000089c1         Code  Gb  cmain.o [5]
__cstart_closeall       0x00008c34         Data  Gb  cstart_closeall.o [5]
__data_Aldata           0x20004000    0x8  Data  Gb  xxmemxmalloc.o [3]
__data_GetMemChunk      0x000072a1   0x2c  Code  Gb  xgetmemchunk.o [3]
__dwrite                0x00008225   0x1e  Code  Gb  dwrite.o [6]
__exit                  0x000083d5   0x14  Code  Gb  exit.o [6]
__iar_Dnorm             0x00006bb3   0x42  Code  Gb  xdnorm.o [4]
__iar_Dscale            0x00006c55  0x10c  Code  Gb  xdscale.o [4]
__iar_Errno             0x20000278    0x4  Data  Gb  errno.o [3]
__iar_Locale_lconv_init
                        0x000071b1   0x3a  Code  Gb  localeconv.o [3]
__iar_Lockfilelock      0x00008211    0x2  Code  Gb  xsyslock_nop.o [3]
__iar_Mbcurmax          0x000067c9    0xa  Code  Gb  xmbcurmax.o [3]
__iar_Memchr            0x00006771         Code  Gb  memchr.o [5]
__iar_Stderr            0x20000208   0x40  Data  Gb  xfiles.o [3]
__iar_Stdin             0x20000188   0x40  Data  Gb  xfiles.o [3]
__iar_Stdout            0x200001c8   0x40  Data  Gb  xfiles.o [3]
__iar_Strchr            0x00006721         Code  Gb  strchr.o [5]
__iar_Unlockfilelock    0x00008213    0x2  Code  Gb  xsyslock_nop.o [3]
__iar_close_ttio        0x00008285   0x2e  Code  Gb  iarttio.o [6]
__iar_d2uiz             0x00006d99         Code  Gb  DblToI32.o [4]
__iar_dadd              0x000072d1         Code  Gb  DblAdd.o [4]
__iar_data_init3        0x00008875   0x28  Code  Gb  data_init.o [5]
__iar_dlib_perthread_access
                        0x00004235    0x2  Code  Gb  xtls.o [3]
__iar_dsub              0x00006dfd         Code  Gb  DblSub.o [4]
__iar_dsubStart         0x00006e0f         Code  Gb  DblSub.o [4]
__iar_get_ttio          0x000082b5   0x38  Code  Gb  iarttio.o [6]
__iar_lookup_ttioh      0x000082f1    0x8  Code  Gb  XShttio.o [3]
__iar_packbits_init3    0x0000831b   0xb2  Code  Gb  packbits_init.o [5]
__iar_program_start     0x00008b75         Code  Gb  cstartup_M.o [5]
__iar_sh_Discard        0x00007f45   0x48  Code  Gb  XShHandles.o [3]
__iar_sh_Move           0x00007f8d   0x4c  Code  Gb  XShHandles.o [3]
__iar_sh_Pos            0x00007fd9   0x44  Code  Gb  XShHandles.o [3]
__iar_sh_stdout         0x00008243   0x20  Code  Gb  iarwstd.o [6]
__iar_sh_write          0x00008263   0x22  Code  Gb  iarwrite.o [6]
__iar_ttio_handles      0x20000268    0x8  Data  Lc  XShttio.o [3]
__iar_ui2d              0x00006dd1         Code  Gb  I32ToDbl.o [4]
__iar_unaligned___aeabi_memcpy
                        0x000034e1         Code  Gb  ABImemcpy_unaligned.o [5]
__iar_unaligned___aeabi_memcpy4
                        0x00003501         Code  Gb  ABImemcpy_unaligned.o [5]
__iar_unaligned___aeabi_memcpy8
                        0x00003501         Code  Gb  ABImemcpy_unaligned.o [5]
__iar_zero_init3        0x000019bf   0x22  Code  Gb  zero_init3.o [5]
__low_level_init        0x000089db    0x4  Code  Gb  low_level_init.o [3]
__lseek                 0x000081b9   0x4c  Code  Gb  lseek.o [6]
__vector_table          0x00000000  0x11c  Data  Gb  app_vect.o [1]
__write                 0x00008215   0x10  Code  Gb  write.o [6]
_call_main              0x000089cd         Code  Gb  cmain.o [5]
_exit                   0x000089e5         Code  Gb  cexit.o [5]
_main                   0x000089d7         Code  Gb  cmain.o [5]
abort                   0x000083cd    0x6  Code  Gb  abort.o [3]
app_task_one_mutex_three_acquire1
                        0x20004014    0x4  Data  Gb  app.o [1]
app_task_one_mutex_three_acquire2
                        0x20004018    0x4  Data  Gb  app.o [1]
app_task_one_mutex_three_acquire_time
                        0x200020a4  0x190  Data  Gb  app.o [1]
app_task_one_mutex_three_release1
                        0x20004034    0x4  Data  Gb  app.o [1]
app_task_one_mutex_three_release2
                        0x20004038    0x4  Data  Gb  app.o [1]
app_task_one_mutex_three_release_time
                        0x200026e4  0x190  Data  Gb  app.o [1]
app_task_one_mutex_two_acquire1
                        0x2000400c    0x4  Data  Gb  app.o [1]
app_task_one_mutex_two_acquire2
                        0x20004010    0x4  Data  Gb  app.o [1]
app_task_one_mutex_two_acquire_time
                        0x20001f14  0x190  Data  Gb  app.o [1]
app_task_one_mutex_two_release1
                        0x2000402c    0x4  Data  Gb  app.o [1]
app_task_one_mutex_two_release2
                        0x20004030    0x4  Data  Gb  app.o [1]
app_task_one_mutex_two_release_time
                        0x20002554  0x190  Data  Gb  app.o [1]
app_task_two_mutex_three_acquire1
                        0x20004024    0x4  Data  Gb  app.o [1]
app_task_two_mutex_three_acquire2
                        0x20004028    0x4  Data  Gb  app.o [1]
app_task_two_mutex_three_acquire_time
                        0x200023c4  0x190  Data  Gb  app.o [1]
app_task_two_mutex_three_release1
                        0x20004044    0x4  Data  Gb  app.o [1]
app_task_two_mutex_three_release2
                        0x20004048    0x4  Data  Gb  app.o [1]
app_task_two_mutex_three_release_time
                        0x20002a04  0x190  Data  Gb  app.o [1]
app_task_two_mutex_two_acquire1
                        0x2000401c    0x4  Data  Gb  app.o [1]
app_task_two_mutex_two_acquire2
                        0x20004020    0x4  Data  Gb  app.o [1]
app_task_two_mutex_two_acquire_time
                        0x20002234  0x190  Data  Gb  app.o [1]
app_task_two_mutex_two_release1
                        0x2000403c    0x4  Data  Gb  app.o [1]
app_task_two_mutex_two_release2
                        0x20004040    0x4  Data  Gb  app.o [1]
app_task_two_mutex_two_release_time
                        0x20002874  0x190  Data  Gb  app.o [1]
app_time                0x20004008    0x4  Data  Gb  app.o [1]
clearTask               0x000012b9   0x2c  Code  Gb  os_RecTask.o [1]
div                     0x0000721d    0xe  Code  Gb  div.o [3]
ebuf                    0x20003cb0   0x50  Data  Lc  xfiles.o [3]
exit                    0x000089df    0x4  Code  Gb  exit.o [3]
fclose                  0x0000853d   0x7a  Code  Gb  fclose.o [3]
fflush                  0x00008173   0x34  Code  Gb  fflush.o [3]
fflushOne               0x000080fd   0x76  Code  Lc  fflush.o [3]
fputc                   0x0000869d   0x56  Code  Gb  fputc.o [3]
free                    0x000068a1   0x7a  Code  Gb  xxmemxfree.o [3]
fseek                   0x0000849f   0x22  Code  Gb  fseek.o [3]
g_pucFont               0x00007d68  0x1dc  Data  Lc  bsp_display.o [1]
g_pucRITInit            0x000086f4   0x50  Data  Lc  bsp_display.o [1]
g_pucRow1               0x00008b80    0x8  Data  Lc  bsp_display.o [1]
g_pucRow2               0x00008b88    0x8  Data  Lc  bsp_display.o [1]
g_pulDCGCRegs           0x00008b5c    0xc  Data  Lc  sysctl.o [1]
g_pulGPIOBaseAddrs      0x00008744   0x48  Data  Lc  gpio.o [1]
g_pulRCGCRegs           0x00008b50    0xc  Data  Lc  sysctl.o [1]
g_pulSRCRRegs           0x00008b44    0xc  Data  Lc  sysctl.o [1]
g_pulXtals              0x000085e8   0x5c  Data  Lc  sysctl.o [1]
g_ucColumnAdjust        0x20000274    0x4  Data  Lc  bsp_display.o [1]
g_ulDelay               0x2000405c    0x4  Data  Lc  bsp_display.o [1]
getBalance              0x000009ab   0x1e  Code  Gb  os_RecTask.o [1]
height                  0x000008db    0xc  Code  Gb  os_RecTask.o [1]
iMove                   0x20000270    0x4  Data  Gb  app.o [1]
insertEDFSched          0x00000c89   0x18  Code  Gb  os_RecTask.o [1]
insert_task             0x00000797    0xe  Code  Gb  os_RecTask.o [1]
leftRotate              0x0000096b   0x40  Code  Gb  os_RecTask.o [1]
localeconv              0x000071eb   0x16  Code  Gb  localeconv.o [3]
main                    0x000073a5   0x52  Code  Gb  app.o [1]
malloc                  0x000067d5   0xac  Code  Gb  xxmemxmalloc.o [3]
max                     0x000008d3    0x8  Code  Gb  os_RecTask.o [1]
memchr                  0x00006771         Code  Gb  memchr.o [5]
obuf                    0x20003d00   0x50  Data  Lc  xfiles.o [3]
printf                  0x00007d45   0x24  Code  Gb  printf.o [3]
putchar                 0x00008a85    0xc  Code  Gb  putchar.o [3]
rand                    0x00003401   0xe0  Code  Gb  rand.o [3]
rand_level              0x000007a5   0x30  Code  Gb  os_RecTask.o [1]
remove                  0x000085d1   0x16  Code  Gb  remove.o [6]
rightRotate             0x0000092b   0x40  Code  Gb  os_RecTask.o [1]
sFileInfo               0x20003ac0   0x80  Data  Lc  XShHandles.o [3]
scale                   0x00006099   0x46  Code  Lc  xprintffull.o [3]
skiplist_delete         0x000007d5   0xe0  Code  Gb  os_RecTask.o [1]
skiplist_init           0x0000063d   0x72  Code  Gb  os_RecTask.o [1]
skiplist_insert         0x000006af   0xe8  Code  Gb  os_RecTask.o [1]
srand                   0x000033e1   0x20  Code  Gb  srand.o [3]
strchr                  0x00006721         Code  Gb  strchr.o [5]
strlen                  0x00006739         Code  Gb  strlen.o [5]


[1] = C:\Users\Feng Shui\Desktop\CE4053_Code_v2.10\CE4053_Code_v2.10\Micrium\Software\EvalBoards\TI\lm3s9b92-evalbot\iar\uCOS-III-CE4053_PG\Flash\Obj
[2] = command line
[3] = dl7M_tlf.a
[4] = m7M_tl.a
[5] = rt7M_tl.a
[6] = shb_l.a

  33 805 bytes of readonly  code memory
   2 235 bytes of readonly  data memory
  17 688 bytes of readwrite data memory

Errors: none
Warnings: none
